{
	"Bank.sol": {
		"Bank": {
			"abi": [
				{
					"inputs": [],
					"stateMutability": "nonpayable",
					"type": "constructor"
				},
				{
					"stateMutability": "payable",
					"type": "fallback"
				},
				{
					"inputs": [
						{
							"internalType": "address",
							"name": "",
							"type": "address"
						}
					],
					"name": "countAndMoney",
					"outputs": [
						{
							"internalType": "uint256",
							"name": "",
							"type": "uint256"
						}
					],
					"stateMutability": "view",
					"type": "function"
				},
				{
					"inputs": [],
					"name": "getTop3",
					"outputs": [
						{
							"internalType": "address[3]",
							"name": "",
							"type": "address[3]"
						}
					],
					"stateMutability": "view",
					"type": "function"
				},
				{
					"inputs": [],
					"name": "saveMoney",
					"outputs": [],
					"stateMutability": "payable",
					"type": "function"
				},
				{
					"inputs": [
						{
							"internalType": "uint256",
							"name": "",
							"type": "uint256"
						}
					],
					"name": "top3",
					"outputs": [
						{
							"internalType": "address",
							"name": "",
							"type": "address"
						}
					],
					"stateMutability": "view",
					"type": "function"
				},
				{
					"inputs": [
						{
							"internalType": "uint256",
							"name": "",
							"type": "uint256"
						}
					],
					"name": "userAddrs",
					"outputs": [
						{
							"internalType": "address",
							"name": "",
							"type": "address"
						}
					],
					"stateMutability": "view",
					"type": "function"
				},
				{
					"inputs": [],
					"name": "withdraw",
					"outputs": [],
					"stateMutability": "nonpayable",
					"type": "function"
				},
				{
					"stateMutability": "payable",
					"type": "receive"
				}
			],
			"devdoc": {
				"kind": "dev",
				"methods": {},
				"version": 1
			},
			"evm": {
				"assembly": "    /* \"Bank.sol\":59:1871  contract Bank{\r... */\n  mstore(0x40, 0x80)\n    /* \"Bank.sol\":226:276  constructor(){\r... */\n  callvalue\n  dup1\n  iszero\n  tag_1\n  jumpi\n  0x00\n  dup1\n  revert\ntag_1:\n  pop\n    /* \"Bank.sol\":258:268  msg.sender */\n  caller\n    /* \"Bank.sol\":250:255  owner */\n  0x05\n  0x00\n    /* \"Bank.sol\":250:268  owner = msg.sender */\n  0x0100\n  exp\n  dup2\n  sload\n  dup2\n  0xffffffffffffffffffffffffffffffffffffffff\n  mul\n  not\n  and\n  swap1\n  dup4\n  0xffffffffffffffffffffffffffffffffffffffff\n  and\n  mul\n  or\n  swap1\n  sstore\n  pop\n    /* \"Bank.sol\":59:1871  contract Bank{\r... */\n  dataSize(sub_0)\n  dup1\n  dataOffset(sub_0)\n  0x00\n  codecopy\n  0x00\n  return\nstop\n\nsub_0: assembly {\n        /* \"Bank.sol\":59:1871  contract Bank{\r... */\n      mstore(0x40, 0x80)\n      jumpi(tag_1, lt(calldatasize, 0x04))\n      shr(0xe0, calldataload(0x00))\n      dup1\n      0x05a4050e\n      eq\n      tag_3\n      jumpi\n      dup1\n      0x2466de24\n      eq\n      tag_4\n      jumpi\n      dup1\n      0x3ccfd60b\n      eq\n      tag_5\n      jumpi\n      dup1\n      0x4061a5bf\n      eq\n      tag_6\n      jumpi\n      dup1\n      0xc9bf5b15\n      eq\n      tag_7\n      jumpi\n      dup1\n      0xe4902400\n      eq\n      tag_8\n      jumpi\n      jump(tag_2)\n    tag_1:\n      jumpi(tag_2, calldatasize)\n      stop\n    tag_2:\n      stop\n        /* \"Bank.sol\":81:127  mapping(address=>uint256) public countAndMoney */\n    tag_3:\n      callvalue\n      dup1\n      iszero\n      tag_13\n      jumpi\n      0x00\n      dup1\n      revert\n    tag_13:\n      pop\n      tag_14\n      0x04\n      dup1\n      calldatasize\n      sub\n      dup2\n      add\n      swap1\n      tag_15\n      swap2\n      swap1\n      tag_16\n      jump\t// in\n    tag_15:\n      tag_17\n      jump\t// in\n    tag_14:\n      mload(0x40)\n      tag_18\n      swap2\n      swap1\n      tag_19\n      jump\t// in\n    tag_18:\n      mload(0x40)\n      dup1\n      swap2\n      sub\n      swap1\n      return\n        /* \"Bank.sol\":284:681  function saveMoney() public payable virtual  {\r... */\n    tag_4:\n      tag_20\n      tag_21\n      jump\t// in\n    tag_20:\n      stop\n        /* \"Bank.sol\":1652:1785  function withdraw() external {\r... */\n    tag_5:\n      callvalue\n      dup1\n      iszero\n      tag_22\n      jumpi\n      0x00\n      dup1\n      revert\n    tag_22:\n      pop\n      tag_23\n      tag_24\n      jump\t// in\n    tag_23:\n      stop\n        /* \"Bank.sol\":1555:1644  function getTop3() external view returns(address[3] memory){\r... */\n    tag_6:\n      callvalue\n      dup1\n      iszero\n      tag_25\n      jumpi\n      0x00\n      dup1\n      revert\n    tag_25:\n      pop\n      tag_26\n      tag_27\n      jump\t// in\n    tag_26:\n      mload(0x40)\n      tag_28\n      swap2\n      swap1\n      tag_29\n      jump\t// in\n    tag_28:\n      mload(0x40)\n      dup1\n      swap2\n      sub\n      swap1\n      return\n        /* \"Bank.sol\":172:195  address [3] public top3 */\n    tag_7:\n      callvalue\n      dup1\n      iszero\n      tag_30\n      jumpi\n      0x00\n      dup1\n      revert\n    tag_30:\n      pop\n      tag_31\n      0x04\n      dup1\n      calldatasize\n      sub\n      dup2\n      add\n      swap1\n      tag_32\n      swap2\n      swap1\n      tag_33\n      jump\t// in\n    tag_32:\n      tag_34\n      jump\t// in\n    tag_31:\n      mload(0x40)\n      tag_35\n      swap2\n      swap1\n      tag_36\n      jump\t// in\n    tag_35:\n      mload(0x40)\n      dup1\n      swap2\n      sub\n      swap1\n      return\n        /* \"Bank.sol\":136:163  address [] public userAddrs */\n    tag_8:\n      callvalue\n      dup1\n      iszero\n      tag_37\n      jumpi\n      0x00\n      dup1\n      revert\n    tag_37:\n      pop\n      tag_38\n      0x04\n      dup1\n      calldatasize\n      sub\n      dup2\n      add\n      swap1\n      tag_39\n      swap2\n      swap1\n      tag_33\n      jump\t// in\n    tag_39:\n      tag_40\n      jump\t// in\n    tag_38:\n      mload(0x40)\n      tag_41\n      swap2\n      swap1\n      tag_36\n      jump\t// in\n    tag_41:\n      mload(0x40)\n      dup1\n      swap2\n      sub\n      swap1\n      return\n        /* \"Bank.sol\":81:127  mapping(address=>uint256) public countAndMoney */\n    tag_17:\n      mstore(0x20, 0x00)\n      dup1\n      0x00\n      mstore\n      keccak256(0x00, 0x40)\n      0x00\n      swap2\n      pop\n      swap1\n      pop\n      sload\n      dup2\n      jump\t// out\n        /* \"Bank.sol\":284:681  function saveMoney() public payable virtual  {\r... */\n    tag_21:\n        /* \"Bank.sol\":360:361  0 */\n      0x00\n        /* \"Bank.sol\":348:357  msg.value */\n      callvalue\n        /* \"Bank.sol\":348:361  msg.value > 0 */\n      gt\n        /* \"Bank.sol\":340:390  require(msg.value > 0,\"value must be more than 0\") */\n      tag_43\n      jumpi\n      mload(0x40)\n      0x08c379a000000000000000000000000000000000000000000000000000000000\n      dup2\n      mstore\n      0x04\n      add\n      tag_44\n      swap1\n      tag_45\n      jump\t// in\n    tag_44:\n      mload(0x40)\n      dup1\n      swap2\n      sub\n      swap1\n      revert\n    tag_43:\n        /* \"Bank.sol\":403:419  address userAddr */\n      0x00\n        /* \"Bank.sol\":422:432  msg.sender */\n      caller\n        /* \"Bank.sol\":403:432  address userAddr = msg.sender */\n      swap1\n      pop\n        /* \"Bank.sol\":532:533  0 */\n      0x00\n        /* \"Bank.sol\":505:518  countAndMoney */\n      dup1\n        /* \"Bank.sol\":505:528  countAndMoney[userAddr] */\n      0x00\n        /* \"Bank.sol\":519:527  userAddr */\n      dup4\n        /* \"Bank.sol\":505:528  countAndMoney[userAddr] */\n      0xffffffffffffffffffffffffffffffffffffffff\n      and\n      0xffffffffffffffffffffffffffffffffffffffff\n      and\n      dup2\n      mstore\n      0x20\n      add\n      swap1\n      dup2\n      mstore\n      0x20\n      add\n      0x00\n      keccak256\n      sload\n        /* \"Bank.sol\":505:533  countAndMoney[userAddr] == 0 */\n      eq\n        /* \"Bank.sol\":501:586  if (countAndMoney[userAddr] == 0) {\r... */\n      iszero\n      tag_46\n      jumpi\n        /* \"Bank.sol\":550:559  userAddrs */\n      0x01\n        /* \"Bank.sol\":565:573  userAddr */\n      dup2\n        /* \"Bank.sol\":550:574  userAddrs.push(userAddr) */\n      swap1\n      dup1\n      0x01\n      dup2\n      sload\n      add\n      dup1\n      dup3\n      sstore\n      dup1\n      swap2\n      pop\n      pop\n      0x01\n      swap1\n      sub\n      swap1\n      0x00\n      mstore\n      keccak256(0x00, 0x20)\n      add\n      0x00\n      swap1\n      swap2\n      swap1\n      swap2\n      swap1\n      swap2\n      0x0100\n      exp\n      dup2\n      sload\n      dup2\n      0xffffffffffffffffffffffffffffffffffffffff\n      mul\n      not\n      and\n      swap1\n      dup4\n      0xffffffffffffffffffffffffffffffffffffffff\n      and\n      mul\n      or\n      swap1\n      sstore\n      pop\n        /* \"Bank.sol\":501:586  if (countAndMoney[userAddr] == 0) {\r... */\n    tag_46:\n        /* \"Bank.sol\":633:642  msg.value */\n      callvalue\n        /* \"Bank.sol\":606:619  countAndMoney */\n      0x00\n        /* \"Bank.sol\":606:629  countAndMoney[userAddr] */\n      dup1\n        /* \"Bank.sol\":620:628  userAddr */\n      dup4\n        /* \"Bank.sol\":606:629  countAndMoney[userAddr] */\n      0xffffffffffffffffffffffffffffffffffffffff\n      and\n      0xffffffffffffffffffffffffffffffffffffffff\n      and\n      dup2\n      mstore\n      0x20\n      add\n      swap1\n      dup2\n      mstore\n      0x20\n      add\n      0x00\n      keccak256\n      0x00\n        /* \"Bank.sol\":606:642  countAndMoney[userAddr] += msg.value */\n      dup3\n      dup3\n      sload\n      tag_48\n      swap2\n      swap1\n      tag_49\n      jump\t// in\n    tag_48:\n      swap3\n      pop\n      pop\n      dup2\n      swap1\n      sstore\n      pop\n        /* \"Bank.sol\":653:673  updateTop3(userAddr) */\n      tag_50\n        /* \"Bank.sol\":664:672  userAddr */\n      dup2\n        /* \"Bank.sol\":653:663  updateTop3 */\n      tag_51\n        /* \"Bank.sol\":653:673  updateTop3(userAddr) */\n      jump\t// in\n    tag_50:\n        /* \"Bank.sol\":284:681  function saveMoney() public payable virtual  {\r... */\n      pop\n      jump\t// out\n        /* \"Bank.sol\":1652:1785  function withdraw() external {\r... */\n    tag_24:\n        /* \"Bank.sol\":1714:1719  owner */\n      0x05\n      0x00\n      swap1\n      sload\n      swap1\n      0x0100\n      exp\n      swap1\n      div\n      0xffffffffffffffffffffffffffffffffffffffff\n      and\n        /* \"Bank.sol\":1700:1719  msg.sender == owner */\n      0xffffffffffffffffffffffffffffffffffffffff\n      and\n        /* \"Bank.sol\":1700:1710  msg.sender */\n      caller\n        /* \"Bank.sol\":1700:1719  msg.sender == owner */\n      0xffffffffffffffffffffffffffffffffffffffff\n      and\n      eq\n        /* \"Bank.sol\":1692:1720  require(msg.sender == owner) */\n      tag_53\n      jumpi\n      0x00\n      dup1\n      revert\n    tag_53:\n        /* \"Bank.sol\":1739:1744  owner */\n      0x05\n      0x00\n      swap1\n      sload\n      swap1\n      0x0100\n      exp\n      swap1\n      div\n      0xffffffffffffffffffffffffffffffffffffffff\n      and\n        /* \"Bank.sol\":1731:1754  payable(owner).transfer */\n      0xffffffffffffffffffffffffffffffffffffffff\n      and\n        /* \"Bank.sol\":1731:1777  payable(owner).transfer(address(this).balance) */\n      0x08fc\n        /* \"Bank.sol\":1755:1776  address(this).balance */\n      selfbalance\n        /* \"Bank.sol\":1731:1777  payable(owner).transfer(address(this).balance) */\n      swap1\n      dup2\n      iszero\n      mul\n      swap1\n      mload(0x40)\n      0x00\n      mload(0x40)\n      dup1\n      dup4\n      sub\n      dup2\n      dup6\n      dup9\n      dup9\n      call\n      swap4\n      pop\n      pop\n      pop\n      pop\n      iszero\n      dup1\n      iszero\n      tag_55\n      jumpi\n      returndatasize\n      0x00\n      dup1\n      returndatacopy\n      revert(0x00, returndatasize)\n    tag_55:\n      pop\n        /* \"Bank.sol\":1652:1785  function withdraw() external {\r... */\n      jump\t// out\n        /* \"Bank.sol\":1555:1644  function getTop3() external view returns(address[3] memory){\r... */\n    tag_27:\n        /* \"Bank.sol\":1596:1613  address[3] memory */\n      tag_56\n      tag_57\n      jump\t// in\n    tag_56:\n        /* \"Bank.sol\":1632:1636  top3 */\n      0x02\n        /* \"Bank.sol\":1625:1636  return top3 */\n      0x03\n      dup1\n      0x20\n      mul\n      mload(0x40)\n      swap1\n      dup2\n      add\n      0x40\n      mstore\n      dup1\n      swap3\n      swap2\n      swap1\n      dup3\n      0x03\n      dup1\n      iszero\n      tag_59\n      jumpi\n      0x20\n      mul\n      dup3\n      add\n      swap2\n    tag_60:\n      dup2\n      0x00\n      swap1\n      sload\n      swap1\n      0x0100\n      exp\n      swap1\n      div\n      0xffffffffffffffffffffffffffffffffffffffff\n      and\n      0xffffffffffffffffffffffffffffffffffffffff\n      and\n      dup2\n      mstore\n      0x20\n      add\n      swap1\n      0x01\n      add\n      swap1\n      dup1\n      dup4\n      gt\n      tag_60\n      jumpi\n    tag_59:\n      pop\n      pop\n      pop\n      pop\n      pop\n      swap1\n      pop\n        /* \"Bank.sol\":1555:1644  function getTop3() external view returns(address[3] memory){\r... */\n      swap1\n      jump\t// out\n        /* \"Bank.sol\":172:195  address [3] public top3 */\n    tag_34:\n      0x02\n      dup2\n      0x03\n      dup2\n      lt\n      tag_61\n      jumpi\n      0x00\n      dup1\n      revert\n    tag_61:\n      add\n      0x00\n      swap2\n      pop\n      sload\n      swap1\n      0x0100\n      exp\n      swap1\n      div\n      0xffffffffffffffffffffffffffffffffffffffff\n      and\n      dup2\n      jump\t// out\n        /* \"Bank.sol\":136:163  address [] public userAddrs */\n    tag_40:\n      0x01\n      dup2\n      dup2\n      sload\n      dup2\n      lt\n      tag_63\n      jumpi\n      0x00\n      dup1\n      revert\n    tag_63:\n      swap1\n      0x00\n      mstore\n      keccak256(0x00, 0x20)\n      add\n      0x00\n      swap2\n      pop\n      sload\n      swap1\n      0x0100\n      exp\n      swap1\n      div\n      0xffffffffffffffffffffffffffffffffffffffff\n      and\n      dup2\n      jump\t// out\n        /* \"Bank.sol\":693:1545  function updateTop3(address user) internal {\r... */\n    tag_51:\n        /* \"Bank.sol\":747:760  uint256 money */\n      0x00\n        /* \"Bank.sol\":763:776  countAndMoney */\n      dup1\n        /* \"Bank.sol\":763:782  countAndMoney[user] */\n      0x00\n        /* \"Bank.sol\":777:781  user */\n      dup4\n        /* \"Bank.sol\":763:782  countAndMoney[user] */\n      0xffffffffffffffffffffffffffffffffffffffff\n      and\n      0xffffffffffffffffffffffffffffffffffffffff\n      and\n      dup2\n      mstore\n      0x20\n      add\n      swap1\n      dup2\n      mstore\n      0x20\n      add\n      0x00\n      keccak256\n      sload\n        /* \"Bank.sol\":747:782  uint256 money = countAndMoney[user] */\n      swap1\n      pop\n        /* \"Bank.sol\":870:876  uint i */\n      0x00\n        /* \"Bank.sol\":865:1131  for (uint i = 0; i < 3; i++) {\r... */\n    tag_66:\n        /* \"Bank.sol\":886:887  3 */\n      0x03\n        /* \"Bank.sol\":882:883  i */\n      dup2\n        /* \"Bank.sol\":882:887  i < 3 */\n      lt\n        /* \"Bank.sol\":865:1131  for (uint i = 0; i < 3; i++) {\r... */\n      iszero\n      tag_67\n      jumpi\n        /* \"Bank.sol\":924:928  user */\n      dup3\n        /* \"Bank.sol\":913:928  top3[i] == user */\n      0xffffffffffffffffffffffffffffffffffffffff\n      and\n        /* \"Bank.sol\":913:917  top3 */\n      0x02\n        /* \"Bank.sol\":918:919  i */\n      dup3\n        /* \"Bank.sol\":913:920  top3[i] */\n      0x03\n      dup2\n      lt\n      tag_69\n      jumpi\n      mstore(0x00, 0x4e487b7100000000000000000000000000000000000000000000000000000000)\n      mstore(0x04, 0x32)\n      revert(0x00, 0x24)\n    tag_69:\n      add\n      0x00\n      swap1\n      sload\n      swap1\n      0x0100\n      exp\n      swap1\n      div\n      0xffffffffffffffffffffffffffffffffffffffff\n      and\n        /* \"Bank.sol\":913:928  top3[i] == user */\n      0xffffffffffffffffffffffffffffffffffffffff\n      and\n      eq\n        /* \"Bank.sol\":909:1120  if (top3[i] == user) {\r... */\n      iszero\n      tag_71\n      jumpi\n        /* \"Bank.sol\":954:960  uint j */\n      0x00\n        /* \"Bank.sol\":963:964  i */\n      dup2\n        /* \"Bank.sol\":954:964  uint j = i */\n      swap1\n      pop\n        /* \"Bank.sol\":949:1042  for (uint j = i; j < 2; j++) {\r... */\n    tag_72:\n        /* \"Bank.sol\":970:971  2 */\n      0x02\n        /* \"Bank.sol\":966:967  j */\n      dup2\n        /* \"Bank.sol\":966:971  j < 2 */\n      lt\n        /* \"Bank.sol\":949:1042  for (uint j = i; j < 2; j++) {\r... */\n      iszero\n      tag_73\n      jumpi\n        /* \"Bank.sol\":1011:1015  top3 */\n      0x02\n        /* \"Bank.sol\":1020:1021  1 */\n      0x01\n        /* \"Bank.sol\":1016:1017  j */\n      dup3\n        /* \"Bank.sol\":1016:1021  j + 1 */\n      tag_75\n      swap2\n      swap1\n      tag_49\n      jump\t// in\n    tag_75:\n        /* \"Bank.sol\":1011:1022  top3[j + 1] */\n      0x03\n      dup2\n      lt\n      tag_76\n      jumpi\n      mstore(0x00, 0x4e487b7100000000000000000000000000000000000000000000000000000000)\n      mstore(0x04, 0x32)\n      revert(0x00, 0x24)\n    tag_76:\n      add\n      0x00\n      swap1\n      sload\n      swap1\n      0x0100\n      exp\n      swap1\n      div\n      0xffffffffffffffffffffffffffffffffffffffff\n      and\n        /* \"Bank.sol\":1001:1005  top3 */\n      0x02\n        /* \"Bank.sol\":1006:1007  j */\n      dup3\n        /* \"Bank.sol\":1001:1008  top3[j] */\n      0x03\n      dup2\n      lt\n      tag_78\n      jumpi\n      mstore(0x00, 0x4e487b7100000000000000000000000000000000000000000000000000000000)\n      mstore(0x04, 0x32)\n      revert(0x00, 0x24)\n    tag_78:\n      add\n      0x00\n        /* \"Bank.sol\":1001:1022  top3[j] = top3[j + 1] */\n      0x0100\n      exp\n      dup2\n      sload\n      dup2\n      0xffffffffffffffffffffffffffffffffffffffff\n      mul\n      not\n      and\n      swap1\n      dup4\n      0xffffffffffffffffffffffffffffffffffffffff\n      and\n      mul\n      or\n      swap1\n      sstore\n      pop\n        /* \"Bank.sol\":973:976  j++ */\n      dup1\n      dup1\n      tag_80\n      swap1\n      tag_81\n      jump\t// in\n    tag_80:\n      swap2\n      pop\n      pop\n        /* \"Bank.sol\":949:1042  for (uint j = i; j < 2; j++) {\r... */\n      jump(tag_72)\n    tag_73:\n      pop\n        /* \"Bank.sol\":1078:1079  0 */\n      0x00\n        /* \"Bank.sol\":1060:1064  top3 */\n      0x02\n        /* \"Bank.sol\":1065:1066  2 */\n      dup1\n        /* \"Bank.sol\":1060:1067  top3[2] */\n      0x03\n      dup2\n      lt\n      tag_82\n      jumpi\n      mstore(0x00, 0x4e487b7100000000000000000000000000000000000000000000000000000000)\n      mstore(0x04, 0x32)\n      revert(0x00, 0x24)\n    tag_82:\n      add\n      0x00\n        /* \"Bank.sol\":1060:1080  top3[2] = address(0) */\n      0x0100\n      exp\n      dup2\n      sload\n      dup2\n      0xffffffffffffffffffffffffffffffffffffffff\n      mul\n      not\n      and\n      swap1\n      dup4\n      0xffffffffffffffffffffffffffffffffffffffff\n      and\n      mul\n      or\n      swap1\n      sstore\n      pop\n        /* \"Bank.sol\":1099:1104  break */\n      jump(tag_67)\n        /* \"Bank.sol\":909:1120  if (top3[i] == user) {\r... */\n    tag_71:\n        /* \"Bank.sol\":889:892  i++ */\n      dup1\n      dup1\n      tag_84\n      swap1\n      tag_81\n      jump\t// in\n    tag_84:\n      swap2\n      pop\n      pop\n        /* \"Bank.sol\":865:1131  for (uint i = 0; i < 3; i++) {\r... */\n      jump(tag_66)\n    tag_67:\n      pop\n        /* \"Bank.sol\":1209:1222  countAndMoney */\n      0x00\n        /* \"Bank.sol\":1209:1231  countAndMoney[top3[0]] */\n      dup1\n        /* \"Bank.sol\":1223:1227  top3 */\n      0x02\n        /* \"Bank.sol\":1228:1229  0 */\n      0x00\n        /* \"Bank.sol\":1223:1230  top3[0] */\n      0x03\n      dup2\n      lt\n      tag_85\n      jumpi\n      mstore(0x00, 0x4e487b7100000000000000000000000000000000000000000000000000000000)\n      mstore(0x04, 0x32)\n      revert(0x00, 0x24)\n    tag_85:\n      add\n      0x00\n      swap1\n      sload\n      swap1\n      0x0100\n      exp\n      swap1\n      div\n      0xffffffffffffffffffffffffffffffffffffffff\n      and\n        /* \"Bank.sol\":1209:1231  countAndMoney[top3[0]] */\n      0xffffffffffffffffffffffffffffffffffffffff\n      and\n      0xffffffffffffffffffffffffffffffffffffffff\n      and\n      dup2\n      mstore\n      0x20\n      add\n      swap1\n      dup2\n      mstore\n      0x20\n      add\n      0x00\n      keccak256\n      sload\n        /* \"Bank.sol\":1201:1206  money */\n      dup2\n        /* \"Bank.sol\":1201:1231  money > countAndMoney[top3[0]] */\n      gt\n        /* \"Bank.sol\":1197:1538  if (money > countAndMoney[top3[0]]) {\r... */\n      iszero\n      tag_87\n      jumpi\n        /* \"Bank.sol\":1258:1262  top3 */\n      0x02\n        /* \"Bank.sol\":1263:1264  1 */\n      0x01\n        /* \"Bank.sol\":1258:1265  top3[1] */\n      0x03\n      dup2\n      lt\n      tag_88\n      jumpi\n      mstore(0x00, 0x4e487b7100000000000000000000000000000000000000000000000000000000)\n      mstore(0x04, 0x32)\n      revert(0x00, 0x24)\n    tag_88:\n      add\n      0x00\n      swap1\n      sload\n      swap1\n      0x0100\n      exp\n      swap1\n      div\n      0xffffffffffffffffffffffffffffffffffffffff\n      and\n        /* \"Bank.sol\":1248:1252  top3 */\n      0x02\n        /* \"Bank.sol\":1253:1254  2 */\n      dup1\n        /* \"Bank.sol\":1248:1255  top3[2] */\n      0x03\n      dup2\n      lt\n      tag_90\n      jumpi\n      mstore(0x00, 0x4e487b7100000000000000000000000000000000000000000000000000000000)\n      mstore(0x04, 0x32)\n      revert(0x00, 0x24)\n    tag_90:\n      add\n      0x00\n        /* \"Bank.sol\":1248:1265  top3[2] = top3[1] */\n      0x0100\n      exp\n      dup2\n      sload\n      dup2\n      0xffffffffffffffffffffffffffffffffffffffff\n      mul\n      not\n      and\n      swap1\n      dup4\n      0xffffffffffffffffffffffffffffffffffffffff\n      and\n      mul\n      or\n      swap1\n      sstore\n      pop\n        /* \"Bank.sol\":1290:1294  top3 */\n      0x02\n        /* \"Bank.sol\":1295:1296  0 */\n      0x00\n        /* \"Bank.sol\":1290:1297  top3[0] */\n      0x03\n      dup2\n      lt\n      tag_92\n      jumpi\n      mstore(0x00, 0x4e487b7100000000000000000000000000000000000000000000000000000000)\n      mstore(0x04, 0x32)\n      revert(0x00, 0x24)\n    tag_92:\n      add\n      0x00\n      swap1\n      sload\n      swap1\n      0x0100\n      exp\n      swap1\n      div\n      0xffffffffffffffffffffffffffffffffffffffff\n      and\n        /* \"Bank.sol\":1280:1284  top3 */\n      0x02\n        /* \"Bank.sol\":1285:1286  1 */\n      0x01\n        /* \"Bank.sol\":1280:1287  top3[1] */\n      0x03\n      dup2\n      lt\n      tag_94\n      jumpi\n      mstore(0x00, 0x4e487b7100000000000000000000000000000000000000000000000000000000)\n      mstore(0x04, 0x32)\n      revert(0x00, 0x24)\n    tag_94:\n      add\n      0x00\n        /* \"Bank.sol\":1280:1297  top3[1] = top3[0] */\n      0x0100\n      exp\n      dup2\n      sload\n      dup2\n      0xffffffffffffffffffffffffffffffffffffffff\n      mul\n      not\n      and\n      swap1\n      dup4\n      0xffffffffffffffffffffffffffffffffffffffff\n      and\n      mul\n      or\n      swap1\n      sstore\n      pop\n        /* \"Bank.sol\":1322:1326  user */\n      dup2\n        /* \"Bank.sol\":1312:1316  top3 */\n      0x02\n        /* \"Bank.sol\":1317:1318  0 */\n      0x00\n        /* \"Bank.sol\":1312:1319  top3[0] */\n      0x03\n      dup2\n      lt\n      tag_96\n      jumpi\n      mstore(0x00, 0x4e487b7100000000000000000000000000000000000000000000000000000000)\n      mstore(0x04, 0x32)\n      revert(0x00, 0x24)\n    tag_96:\n      add\n      0x00\n        /* \"Bank.sol\":1312:1326  top3[0] = user */\n      0x0100\n      exp\n      dup2\n      sload\n      dup2\n      0xffffffffffffffffffffffffffffffffffffffff\n      mul\n      not\n      and\n      swap1\n      dup4\n      0xffffffffffffffffffffffffffffffffffffffff\n      and\n      mul\n      or\n      swap1\n      sstore\n      pop\n        /* \"Bank.sol\":1197:1538  if (money > countAndMoney[top3[0]]) {\r... */\n      jump(tag_98)\n    tag_87:\n        /* \"Bank.sol\":1358:1371  countAndMoney */\n      0x00\n        /* \"Bank.sol\":1358:1380  countAndMoney[top3[1]] */\n      dup1\n        /* \"Bank.sol\":1372:1376  top3 */\n      0x02\n        /* \"Bank.sol\":1377:1378  1 */\n      0x01\n        /* \"Bank.sol\":1372:1379  top3[1] */\n      0x03\n      dup2\n      lt\n      tag_99\n      jumpi\n      mstore(0x00, 0x4e487b7100000000000000000000000000000000000000000000000000000000)\n      mstore(0x04, 0x32)\n      revert(0x00, 0x24)\n    tag_99:\n      add\n      0x00\n      swap1\n      sload\n      swap1\n      0x0100\n      exp\n      swap1\n      div\n      0xffffffffffffffffffffffffffffffffffffffff\n      and\n        /* \"Bank.sol\":1358:1380  countAndMoney[top3[1]] */\n      0xffffffffffffffffffffffffffffffffffffffff\n      and\n      0xffffffffffffffffffffffffffffffffffffffff\n      and\n      dup2\n      mstore\n      0x20\n      add\n      swap1\n      dup2\n      mstore\n      0x20\n      add\n      0x00\n      keccak256\n      sload\n        /* \"Bank.sol\":1350:1355  money */\n      dup2\n        /* \"Bank.sol\":1350:1380  money > countAndMoney[top3[1]] */\n      gt\n        /* \"Bank.sol\":1346:1538  if (money > countAndMoney[top3[1]]) {\r... */\n      iszero\n      tag_101\n      jumpi\n        /* \"Bank.sol\":1407:1411  top3 */\n      0x02\n        /* \"Bank.sol\":1412:1413  1 */\n      0x01\n        /* \"Bank.sol\":1407:1414  top3[1] */\n      0x03\n      dup2\n      lt\n      tag_102\n      jumpi\n      mstore(0x00, 0x4e487b7100000000000000000000000000000000000000000000000000000000)\n      mstore(0x04, 0x32)\n      revert(0x00, 0x24)\n    tag_102:\n      add\n      0x00\n      swap1\n      sload\n      swap1\n      0x0100\n      exp\n      swap1\n      div\n      0xffffffffffffffffffffffffffffffffffffffff\n      and\n        /* \"Bank.sol\":1397:1401  top3 */\n      0x02\n        /* \"Bank.sol\":1402:1403  2 */\n      dup1\n        /* \"Bank.sol\":1397:1404  top3[2] */\n      0x03\n      dup2\n      lt\n      tag_104\n      jumpi\n      mstore(0x00, 0x4e487b7100000000000000000000000000000000000000000000000000000000)\n      mstore(0x04, 0x32)\n      revert(0x00, 0x24)\n    tag_104:\n      add\n      0x00\n        /* \"Bank.sol\":1397:1414  top3[2] = top3[1] */\n      0x0100\n      exp\n      dup2\n      sload\n      dup2\n      0xffffffffffffffffffffffffffffffffffffffff\n      mul\n      not\n      and\n      swap1\n      dup4\n      0xffffffffffffffffffffffffffffffffffffffff\n      and\n      mul\n      or\n      swap1\n      sstore\n      pop\n        /* \"Bank.sol\":1439:1443  user */\n      dup2\n        /* \"Bank.sol\":1429:1433  top3 */\n      0x02\n        /* \"Bank.sol\":1434:1435  1 */\n      0x01\n        /* \"Bank.sol\":1429:1436  top3[1] */\n      0x03\n      dup2\n      lt\n      tag_106\n      jumpi\n      mstore(0x00, 0x4e487b7100000000000000000000000000000000000000000000000000000000)\n      mstore(0x04, 0x32)\n      revert(0x00, 0x24)\n    tag_106:\n      add\n      0x00\n        /* \"Bank.sol\":1429:1443  top3[1] = user */\n      0x0100\n      exp\n      dup2\n      sload\n      dup2\n      0xffffffffffffffffffffffffffffffffffffffff\n      mul\n      not\n      and\n      swap1\n      dup4\n      0xffffffffffffffffffffffffffffffffffffffff\n      and\n      mul\n      or\n      swap1\n      sstore\n      pop\n        /* \"Bank.sol\":1346:1538  if (money > countAndMoney[top3[1]]) {\r... */\n      jump(tag_108)\n    tag_101:\n        /* \"Bank.sol\":1473:1486  countAndMoney */\n      0x00\n        /* \"Bank.sol\":1473:1495  countAndMoney[top3[2]] */\n      dup1\n        /* \"Bank.sol\":1487:1491  top3 */\n      0x02\n        /* \"Bank.sol\":1492:1493  2 */\n      dup1\n        /* \"Bank.sol\":1487:1494  top3[2] */\n      0x03\n      dup2\n      lt\n      tag_109\n      jumpi\n      mstore(0x00, 0x4e487b7100000000000000000000000000000000000000000000000000000000)\n      mstore(0x04, 0x32)\n      revert(0x00, 0x24)\n    tag_109:\n      add\n      0x00\n      swap1\n      sload\n      swap1\n      0x0100\n      exp\n      swap1\n      div\n      0xffffffffffffffffffffffffffffffffffffffff\n      and\n        /* \"Bank.sol\":1473:1495  countAndMoney[top3[2]] */\n      0xffffffffffffffffffffffffffffffffffffffff\n      and\n      0xffffffffffffffffffffffffffffffffffffffff\n      and\n      dup2\n      mstore\n      0x20\n      add\n      swap1\n      dup2\n      mstore\n      0x20\n      add\n      0x00\n      keccak256\n      sload\n        /* \"Bank.sol\":1465:1470  money */\n      dup2\n        /* \"Bank.sol\":1465:1495  money > countAndMoney[top3[2]] */\n      gt\n        /* \"Bank.sol\":1461:1538  if (money > countAndMoney[top3[2]]) {\r... */\n      iszero\n      tag_111\n      jumpi\n        /* \"Bank.sol\":1522:1526  user */\n      dup2\n        /* \"Bank.sol\":1512:1516  top3 */\n      0x02\n        /* \"Bank.sol\":1517:1518  2 */\n      dup1\n        /* \"Bank.sol\":1512:1519  top3[2] */\n      0x03\n      dup2\n      lt\n      tag_112\n      jumpi\n      mstore(0x00, 0x4e487b7100000000000000000000000000000000000000000000000000000000)\n      mstore(0x04, 0x32)\n      revert(0x00, 0x24)\n    tag_112:\n      add\n      0x00\n        /* \"Bank.sol\":1512:1526  top3[2] = user */\n      0x0100\n      exp\n      dup2\n      sload\n      dup2\n      0xffffffffffffffffffffffffffffffffffffffff\n      mul\n      not\n      and\n      swap1\n      dup4\n      0xffffffffffffffffffffffffffffffffffffffff\n      and\n      mul\n      or\n      swap1\n      sstore\n      pop\n        /* \"Bank.sol\":1461:1538  if (money > countAndMoney[top3[2]]) {\r... */\n    tag_111:\n        /* \"Bank.sol\":1346:1538  if (money > countAndMoney[top3[1]]) {\r... */\n    tag_108:\n        /* \"Bank.sol\":1197:1538  if (money > countAndMoney[top3[0]]) {\r... */\n    tag_98:\n        /* \"Bank.sol\":693:1545  function updateTop3(address user) internal {\r... */\n      pop\n      pop\n      jump\t// out\n    tag_57:\n      mload(0x40)\n      dup1\n      0x60\n      add\n      0x40\n      mstore\n      dup1\n      0x03\n      swap1\n      0x20\n      dup3\n      mul\n      dup1\n      calldatasize\n      dup4\n      calldatacopy\n      dup1\n      dup3\n      add\n      swap2\n      pop\n      pop\n      swap1\n      pop\n      pop\n      swap1\n      jump\t// out\n        /* \"#utility.yul\":7:146   */\n    tag_115:\n      0x00\n        /* \"#utility.yul\":91:97   */\n      dup2\n        /* \"#utility.yul\":78:98   */\n      calldataload\n        /* \"#utility.yul\":69:98   */\n      swap1\n      pop\n        /* \"#utility.yul\":107:140   */\n      tag_117\n        /* \"#utility.yul\":134:139   */\n      dup2\n        /* \"#utility.yul\":107:140   */\n      tag_118\n      jump\t// in\n    tag_117:\n        /* \"#utility.yul\":59:146   */\n      swap3\n      swap2\n      pop\n      pop\n      jump\t// out\n        /* \"#utility.yul\":152:291   */\n    tag_119:\n      0x00\n        /* \"#utility.yul\":236:242   */\n      dup2\n        /* \"#utility.yul\":223:243   */\n      calldataload\n        /* \"#utility.yul\":214:243   */\n      swap1\n      pop\n        /* \"#utility.yul\":252:285   */\n      tag_121\n        /* \"#utility.yul\":279:284   */\n      dup2\n        /* \"#utility.yul\":252:285   */\n      tag_122\n      jump\t// in\n    tag_121:\n        /* \"#utility.yul\":204:291   */\n      swap3\n      swap2\n      pop\n      pop\n      jump\t// out\n        /* \"#utility.yul\":297:559   */\n    tag_16:\n      0x00\n        /* \"#utility.yul\":405:407   */\n      0x20\n        /* \"#utility.yul\":393:402   */\n      dup3\n        /* \"#utility.yul\":384:391   */\n      dup5\n        /* \"#utility.yul\":380:403   */\n      sub\n        /* \"#utility.yul\":376:408   */\n      slt\n        /* \"#utility.yul\":373:375   */\n      iszero\n      tag_124\n      jumpi\n        /* \"#utility.yul\":421:422   */\n      0x00\n        /* \"#utility.yul\":418:419   */\n      dup1\n        /* \"#utility.yul\":411:423   */\n      revert\n        /* \"#utility.yul\":373:375   */\n    tag_124:\n        /* \"#utility.yul\":464:465   */\n      0x00\n        /* \"#utility.yul\":489:542   */\n      tag_125\n        /* \"#utility.yul\":534:541   */\n      dup5\n        /* \"#utility.yul\":525:531   */\n      dup3\n        /* \"#utility.yul\":514:523   */\n      dup6\n        /* \"#utility.yul\":510:532   */\n      add\n        /* \"#utility.yul\":489:542   */\n      tag_115\n      jump\t// in\n    tag_125:\n        /* \"#utility.yul\":479:542   */\n      swap2\n      pop\n        /* \"#utility.yul\":435:552   */\n      pop\n        /* \"#utility.yul\":363:559   */\n      swap3\n      swap2\n      pop\n      pop\n      jump\t// out\n        /* \"#utility.yul\":565:827   */\n    tag_33:\n      0x00\n        /* \"#utility.yul\":673:675   */\n      0x20\n        /* \"#utility.yul\":661:670   */\n      dup3\n        /* \"#utility.yul\":652:659   */\n      dup5\n        /* \"#utility.yul\":648:671   */\n      sub\n        /* \"#utility.yul\":644:676   */\n      slt\n        /* \"#utility.yul\":641:643   */\n      iszero\n      tag_127\n      jumpi\n        /* \"#utility.yul\":689:690   */\n      0x00\n        /* \"#utility.yul\":686:687   */\n      dup1\n        /* \"#utility.yul\":679:691   */\n      revert\n        /* \"#utility.yul\":641:643   */\n    tag_127:\n        /* \"#utility.yul\":732:733   */\n      0x00\n        /* \"#utility.yul\":757:810   */\n      tag_128\n        /* \"#utility.yul\":802:809   */\n      dup5\n        /* \"#utility.yul\":793:799   */\n      dup3\n        /* \"#utility.yul\":782:791   */\n      dup6\n        /* \"#utility.yul\":778:800   */\n      add\n        /* \"#utility.yul\":757:810   */\n      tag_119\n      jump\t// in\n    tag_128:\n        /* \"#utility.yul\":747:810   */\n      swap2\n      pop\n        /* \"#utility.yul\":703:820   */\n      pop\n        /* \"#utility.yul\":631:827   */\n      swap3\n      swap2\n      pop\n      pop\n      jump\t// out\n        /* \"#utility.yul\":833:1012   */\n    tag_129:\n      0x00\n        /* \"#utility.yul\":923:969   */\n      tag_131\n        /* \"#utility.yul\":965:968   */\n      dup4\n        /* \"#utility.yul\":957:963   */\n      dup4\n        /* \"#utility.yul\":923:969   */\n      tag_132\n      jump\t// in\n    tag_131:\n        /* \"#utility.yul\":1001:1005   */\n      0x20\n        /* \"#utility.yul\":996:999   */\n      dup4\n        /* \"#utility.yul\":992:1006   */\n      add\n        /* \"#utility.yul\":978:1006   */\n      swap1\n      pop\n        /* \"#utility.yul\":913:1012   */\n      swap3\n      swap2\n      pop\n      pop\n      jump\t// out\n        /* \"#utility.yul\":1018:1126   */\n    tag_132:\n        /* \"#utility.yul\":1095:1119   */\n      tag_134\n        /* \"#utility.yul\":1113:1118   */\n      dup2\n        /* \"#utility.yul\":1095:1119   */\n      tag_135\n      jump\t// in\n    tag_134:\n        /* \"#utility.yul\":1090:1093   */\n      dup3\n        /* \"#utility.yul\":1083:1120   */\n      mstore\n        /* \"#utility.yul\":1073:1126   */\n      pop\n      pop\n      jump\t// out\n        /* \"#utility.yul\":1132:1250   */\n    tag_136:\n        /* \"#utility.yul\":1219:1243   */\n      tag_138\n        /* \"#utility.yul\":1237:1242   */\n      dup2\n        /* \"#utility.yul\":1219:1243   */\n      tag_135\n      jump\t// in\n    tag_138:\n        /* \"#utility.yul\":1214:1217   */\n      dup3\n        /* \"#utility.yul\":1207:1244   */\n      mstore\n        /* \"#utility.yul\":1197:1250   */\n      pop\n      pop\n      jump\t// out\n        /* \"#utility.yul\":1288:1982   */\n    tag_139:\n        /* \"#utility.yul\":1424:1476   */\n      tag_141\n        /* \"#utility.yul\":1470:1475   */\n      dup2\n        /* \"#utility.yul\":1424:1476   */\n      tag_142\n      jump\t// in\n    tag_141:\n        /* \"#utility.yul\":1492:1576   */\n      tag_143\n        /* \"#utility.yul\":1569:1575   */\n      dup2\n        /* \"#utility.yul\":1564:1567   */\n      dup5\n        /* \"#utility.yul\":1492:1576   */\n      tag_144\n      jump\t// in\n    tag_143:\n        /* \"#utility.yul\":1485:1576   */\n      swap3\n      pop\n        /* \"#utility.yul\":1600:1654   */\n      tag_145\n        /* \"#utility.yul\":1648:1653   */\n      dup3\n        /* \"#utility.yul\":1600:1654   */\n      tag_146\n      jump\t// in\n    tag_145:\n        /* \"#utility.yul\":1677:1684   */\n      dup1\n        /* \"#utility.yul\":1708:1709   */\n      0x00\n        /* \"#utility.yul\":1693:1975   */\n    tag_147:\n        /* \"#utility.yul\":1718:1724   */\n      dup4\n        /* \"#utility.yul\":1715:1716   */\n      dup2\n        /* \"#utility.yul\":1712:1725   */\n      lt\n        /* \"#utility.yul\":1693:1975   */\n      iszero\n      tag_149\n      jumpi\n        /* \"#utility.yul\":1794:1800   */\n      dup2\n        /* \"#utility.yul\":1788:1801   */\n      mload\n        /* \"#utility.yul\":1821:1884   */\n      tag_150\n        /* \"#utility.yul\":1880:1883   */\n      dup8\n        /* \"#utility.yul\":1865:1878   */\n      dup3\n        /* \"#utility.yul\":1821:1884   */\n      tag_129\n      jump\t// in\n    tag_150:\n        /* \"#utility.yul\":1814:1884   */\n      swap7\n      pop\n        /* \"#utility.yul\":1907:1965   */\n      tag_151\n        /* \"#utility.yul\":1958:1964   */\n      dup4\n        /* \"#utility.yul\":1907:1965   */\n      tag_152\n      jump\t// in\n    tag_151:\n        /* \"#utility.yul\":1897:1965   */\n      swap3\n      pop\n        /* \"#utility.yul\":1753:1975   */\n      pop\n        /* \"#utility.yul\":1740:1741   */\n      0x01\n        /* \"#utility.yul\":1737:1738   */\n      dup2\n        /* \"#utility.yul\":1733:1742   */\n      add\n        /* \"#utility.yul\":1728:1742   */\n      swap1\n      pop\n        /* \"#utility.yul\":1693:1975   */\n      jump(tag_147)\n    tag_149:\n        /* \"#utility.yul\":1697:1711   */\n      pop\n        /* \"#utility.yul\":1400:1982   */\n      pop\n      pop\n      pop\n      pop\n      pop\n      jump\t// out\n        /* \"#utility.yul\":1988:2311   */\n    tag_153:\n      0x00\n        /* \"#utility.yul\":2151:2218   */\n      tag_155\n        /* \"#utility.yul\":2215:2217   */\n      0x19\n        /* \"#utility.yul\":2210:2213   */\n      dup4\n        /* \"#utility.yul\":2151:2218   */\n      tag_156\n      jump\t// in\n    tag_155:\n        /* \"#utility.yul\":2144:2218   */\n      swap2\n      pop\n        /* \"#utility.yul\":2248:2275   */\n      0x76616c7565206d757374206265206d6f7265207468616e203000000000000000\n        /* \"#utility.yul\":2244:2245   */\n      0x00\n        /* \"#utility.yul\":2239:2242   */\n      dup4\n        /* \"#utility.yul\":2235:2246   */\n      add\n        /* \"#utility.yul\":2228:2276   */\n      mstore\n        /* \"#utility.yul\":2302:2304   */\n      0x20\n        /* \"#utility.yul\":2297:2300   */\n      dup3\n        /* \"#utility.yul\":2293:2305   */\n      add\n        /* \"#utility.yul\":2286:2305   */\n      swap1\n      pop\n        /* \"#utility.yul\":2134:2311   */\n      swap2\n      swap1\n      pop\n      jump\t// out\n        /* \"#utility.yul\":2317:2435   */\n    tag_157:\n        /* \"#utility.yul\":2404:2428   */\n      tag_159\n        /* \"#utility.yul\":2422:2427   */\n      dup2\n        /* \"#utility.yul\":2404:2428   */\n      tag_160\n      jump\t// in\n    tag_159:\n        /* \"#utility.yul\":2399:2402   */\n      dup3\n        /* \"#utility.yul\":2392:2429   */\n      mstore\n        /* \"#utility.yul\":2382:2435   */\n      pop\n      pop\n      jump\t// out\n        /* \"#utility.yul\":2441:2663   */\n    tag_36:\n      0x00\n        /* \"#utility.yul\":2572:2574   */\n      0x20\n        /* \"#utility.yul\":2561:2570   */\n      dup3\n        /* \"#utility.yul\":2557:2575   */\n      add\n        /* \"#utility.yul\":2549:2575   */\n      swap1\n      pop\n        /* \"#utility.yul\":2585:2656   */\n      tag_162\n        /* \"#utility.yul\":2653:2654   */\n      0x00\n        /* \"#utility.yul\":2642:2651   */\n      dup4\n        /* \"#utility.yul\":2638:2655   */\n      add\n        /* \"#utility.yul\":2629:2635   */\n      dup5\n        /* \"#utility.yul\":2585:2656   */\n      tag_136\n      jump\t// in\n    tag_162:\n        /* \"#utility.yul\":2539:2663   */\n      swap3\n      swap2\n      pop\n      pop\n      jump\t// out\n        /* \"#utility.yul\":2669:2983   */\n    tag_29:\n      0x00\n        /* \"#utility.yul\":2846:2848   */\n      0x60\n        /* \"#utility.yul\":2835:2844   */\n      dup3\n        /* \"#utility.yul\":2831:2849   */\n      add\n        /* \"#utility.yul\":2823:2849   */\n      swap1\n      pop\n        /* \"#utility.yul\":2859:2976   */\n      tag_164\n        /* \"#utility.yul\":2973:2974   */\n      0x00\n        /* \"#utility.yul\":2962:2971   */\n      dup4\n        /* \"#utility.yul\":2958:2975   */\n      add\n        /* \"#utility.yul\":2949:2955   */\n      dup5\n        /* \"#utility.yul\":2859:2976   */\n      tag_139\n      jump\t// in\n    tag_164:\n        /* \"#utility.yul\":2813:2983   */\n      swap3\n      swap2\n      pop\n      pop\n      jump\t// out\n        /* \"#utility.yul\":2989:3408   */\n    tag_45:\n      0x00\n        /* \"#utility.yul\":3193:3195   */\n      0x20\n        /* \"#utility.yul\":3182:3191   */\n      dup3\n        /* \"#utility.yul\":3178:3196   */\n      add\n        /* \"#utility.yul\":3170:3196   */\n      swap1\n      pop\n        /* \"#utility.yul\":3242:3251   */\n      dup2\n        /* \"#utility.yul\":3236:3240   */\n      dup2\n        /* \"#utility.yul\":3232:3252   */\n      sub\n        /* \"#utility.yul\":3228:3229   */\n      0x00\n        /* \"#utility.yul\":3217:3226   */\n      dup4\n        /* \"#utility.yul\":3213:3230   */\n      add\n        /* \"#utility.yul\":3206:3253   */\n      mstore\n        /* \"#utility.yul\":3270:3401   */\n      tag_166\n        /* \"#utility.yul\":3396:3400   */\n      dup2\n        /* \"#utility.yul\":3270:3401   */\n      tag_153\n      jump\t// in\n    tag_166:\n        /* \"#utility.yul\":3262:3401   */\n      swap1\n      pop\n        /* \"#utility.yul\":3160:3408   */\n      swap2\n      swap1\n      pop\n      jump\t// out\n        /* \"#utility.yul\":3414:3636   */\n    tag_19:\n      0x00\n        /* \"#utility.yul\":3545:3547   */\n      0x20\n        /* \"#utility.yul\":3534:3543   */\n      dup3\n        /* \"#utility.yul\":3530:3548   */\n      add\n        /* \"#utility.yul\":3522:3548   */\n      swap1\n      pop\n        /* \"#utility.yul\":3558:3629   */\n      tag_168\n        /* \"#utility.yul\":3626:3627   */\n      0x00\n        /* \"#utility.yul\":3615:3624   */\n      dup4\n        /* \"#utility.yul\":3611:3628   */\n      add\n        /* \"#utility.yul\":3602:3608   */\n      dup5\n        /* \"#utility.yul\":3558:3629   */\n      tag_157\n      jump\t// in\n    tag_168:\n        /* \"#utility.yul\":3512:3636   */\n      swap3\n      swap2\n      pop\n      pop\n      jump\t// out\n        /* \"#utility.yul\":3642:3740   */\n    tag_146:\n      0x00\n        /* \"#utility.yul\":3730:3733   */\n      dup2\n        /* \"#utility.yul\":3722:3733   */\n      swap1\n      pop\n        /* \"#utility.yul\":3712:3740   */\n      swap2\n      swap1\n      pop\n      jump\t// out\n        /* \"#utility.yul\":3746:3850   */\n    tag_142:\n      0x00\n        /* \"#utility.yul\":3839:3843   */\n      0x03\n        /* \"#utility.yul\":3829:3843   */\n      swap1\n      pop\n        /* \"#utility.yul\":3818:3850   */\n      swap2\n      swap1\n      pop\n      jump\t// out\n        /* \"#utility.yul\":3856:3967   */\n    tag_152:\n      0x00\n        /* \"#utility.yul\":3956:3960   */\n      0x20\n        /* \"#utility.yul\":3951:3954   */\n      dup3\n        /* \"#utility.yul\":3947:3961   */\n      add\n        /* \"#utility.yul\":3939:3961   */\n      swap1\n      pop\n        /* \"#utility.yul\":3929:3967   */\n      swap2\n      swap1\n      pop\n      jump\t// out\n        /* \"#utility.yul\":3973:4116   */\n    tag_144:\n      0x00\n        /* \"#utility.yul\":4107:4110   */\n      dup2\n        /* \"#utility.yul\":4092:4110   */\n      swap1\n      pop\n        /* \"#utility.yul\":4082:4116   */\n      swap3\n      swap2\n      pop\n      pop\n      jump\t// out\n        /* \"#utility.yul\":4122:4291   */\n    tag_156:\n      0x00\n        /* \"#utility.yul\":4240:4246   */\n      dup3\n        /* \"#utility.yul\":4235:4238   */\n      dup3\n        /* \"#utility.yul\":4228:4247   */\n      mstore\n        /* \"#utility.yul\":4280:4284   */\n      0x20\n        /* \"#utility.yul\":4275:4278   */\n      dup3\n        /* \"#utility.yul\":4271:4285   */\n      add\n        /* \"#utility.yul\":4256:4285   */\n      swap1\n      pop\n        /* \"#utility.yul\":4218:4291   */\n      swap3\n      swap2\n      pop\n      pop\n      jump\t// out\n        /* \"#utility.yul\":4297:4602   */\n    tag_49:\n      0x00\n        /* \"#utility.yul\":4356:4376   */\n      tag_175\n        /* \"#utility.yul\":4374:4375   */\n      dup3\n        /* \"#utility.yul\":4356:4376   */\n      tag_160\n      jump\t// in\n    tag_175:\n        /* \"#utility.yul\":4351:4376   */\n      swap2\n      pop\n        /* \"#utility.yul\":4390:4410   */\n      tag_176\n        /* \"#utility.yul\":4408:4409   */\n      dup4\n        /* \"#utility.yul\":4390:4410   */\n      tag_160\n      jump\t// in\n    tag_176:\n        /* \"#utility.yul\":4385:4410   */\n      swap3\n      pop\n        /* \"#utility.yul\":4544:4545   */\n      dup3\n        /* \"#utility.yul\":4476:4542   */\n      0xffffffffffffffffffffffffffffffffffffffffffffffffffffffffffffffff\n        /* \"#utility.yul\":4472:4546   */\n      sub\n        /* \"#utility.yul\":4469:4470   */\n      dup3\n        /* \"#utility.yul\":4466:4547   */\n      gt\n        /* \"#utility.yul\":4463:4465   */\n      iszero\n      tag_177\n      jumpi\n        /* \"#utility.yul\":4550:4568   */\n      tag_178\n      tag_179\n      jump\t// in\n    tag_178:\n        /* \"#utility.yul\":4463:4465   */\n    tag_177:\n        /* \"#utility.yul\":4594:4595   */\n      dup3\n        /* \"#utility.yul\":4591:4592   */\n      dup3\n        /* \"#utility.yul\":4587:4596   */\n      add\n        /* \"#utility.yul\":4580:4596   */\n      swap1\n      pop\n        /* \"#utility.yul\":4341:4602   */\n      swap3\n      swap2\n      pop\n      pop\n      jump\t// out\n        /* \"#utility.yul\":4608:4704   */\n    tag_135:\n      0x00\n        /* \"#utility.yul\":4674:4698   */\n      tag_181\n        /* \"#utility.yul\":4692:4697   */\n      dup3\n        /* \"#utility.yul\":4674:4698   */\n      tag_182\n      jump\t// in\n    tag_181:\n        /* \"#utility.yul\":4663:4698   */\n      swap1\n      pop\n        /* \"#utility.yul\":4653:4704   */\n      swap2\n      swap1\n      pop\n      jump\t// out\n        /* \"#utility.yul\":4710:4836   */\n    tag_182:\n      0x00\n        /* \"#utility.yul\":4787:4829   */\n      0xffffffffffffffffffffffffffffffffffffffff\n        /* \"#utility.yul\":4780:4785   */\n      dup3\n        /* \"#utility.yul\":4776:4830   */\n      and\n        /* \"#utility.yul\":4765:4830   */\n      swap1\n      pop\n        /* \"#utility.yul\":4755:4836   */\n      swap2\n      swap1\n      pop\n      jump\t// out\n        /* \"#utility.yul\":4842:4919   */\n    tag_160:\n      0x00\n        /* \"#utility.yul\":4908:4913   */\n      dup2\n        /* \"#utility.yul\":4897:4913   */\n      swap1\n      pop\n        /* \"#utility.yul\":4887:4919   */\n      swap2\n      swap1\n      pop\n      jump\t// out\n        /* \"#utility.yul\":4925:5158   */\n    tag_81:\n      0x00\n        /* \"#utility.yul\":4987:5011   */\n      tag_186\n        /* \"#utility.yul\":5005:5010   */\n      dup3\n        /* \"#utility.yul\":4987:5011   */\n      tag_160\n      jump\t// in\n    tag_186:\n        /* \"#utility.yul\":4978:5011   */\n      swap2\n      pop\n        /* \"#utility.yul\":5033:5099   */\n      0xffffffffffffffffffffffffffffffffffffffffffffffffffffffffffffffff\n        /* \"#utility.yul\":5026:5031   */\n      dup3\n        /* \"#utility.yul\":5023:5100   */\n      eq\n        /* \"#utility.yul\":5020:5022   */\n      iszero\n      tag_187\n      jumpi\n        /* \"#utility.yul\":5103:5121   */\n      tag_188\n      tag_179\n      jump\t// in\n    tag_188:\n        /* \"#utility.yul\":5020:5022   */\n    tag_187:\n        /* \"#utility.yul\":5150:5151   */\n      0x01\n        /* \"#utility.yul\":5143:5148   */\n      dup3\n        /* \"#utility.yul\":5139:5152   */\n      add\n        /* \"#utility.yul\":5132:5152   */\n      swap1\n      pop\n        /* \"#utility.yul\":4968:5158   */\n      swap2\n      swap1\n      pop\n      jump\t// out\n        /* \"#utility.yul\":5164:5344   */\n    tag_179:\n        /* \"#utility.yul\":5212:5289   */\n      0x4e487b7100000000000000000000000000000000000000000000000000000000\n        /* \"#utility.yul\":5209:5210   */\n      0x00\n        /* \"#utility.yul\":5202:5290   */\n      mstore\n        /* \"#utility.yul\":5309:5313   */\n      0x11\n        /* \"#utility.yul\":5306:5307   */\n      0x04\n        /* \"#utility.yul\":5299:5314   */\n      mstore\n        /* \"#utility.yul\":5333:5337   */\n      0x24\n        /* \"#utility.yul\":5330:5331   */\n      0x00\n        /* \"#utility.yul\":5323:5338   */\n      revert\n        /* \"#utility.yul\":5350:5472   */\n    tag_118:\n        /* \"#utility.yul\":5423:5447   */\n      tag_191\n        /* \"#utility.yul\":5441:5446   */\n      dup2\n        /* \"#utility.yul\":5423:5447   */\n      tag_135\n      jump\t// in\n    tag_191:\n        /* \"#utility.yul\":5416:5421   */\n      dup2\n        /* \"#utility.yul\":5413:5448   */\n      eq\n        /* \"#utility.yul\":5403:5405   */\n      tag_192\n      jumpi\n        /* \"#utility.yul\":5462:5463   */\n      0x00\n        /* \"#utility.yul\":5459:5460   */\n      dup1\n        /* \"#utility.yul\":5452:5464   */\n      revert\n        /* \"#utility.yul\":5403:5405   */\n    tag_192:\n        /* \"#utility.yul\":5393:5472   */\n      pop\n      jump\t// out\n        /* \"#utility.yul\":5478:5600   */\n    tag_122:\n        /* \"#utility.yul\":5551:5575   */\n      tag_194\n        /* \"#utility.yul\":5569:5574   */\n      dup2\n        /* \"#utility.yul\":5551:5575   */\n      tag_160\n      jump\t// in\n    tag_194:\n        /* \"#utility.yul\":5544:5549   */\n      dup2\n        /* \"#utility.yul\":5541:5576   */\n      eq\n        /* \"#utility.yul\":5531:5533   */\n      tag_195\n      jumpi\n        /* \"#utility.yul\":5590:5591   */\n      0x00\n        /* \"#utility.yul\":5587:5588   */\n      dup1\n        /* \"#utility.yul\":5580:5592   */\n      revert\n        /* \"#utility.yul\":5531:5533   */\n    tag_195:\n        /* \"#utility.yul\":5521:5600   */\n      pop\n      jump\t// out\n\n    auxdata: 0xa2646970667358221220d7a5e3d4fe744316b7a7943b11062f10d3f33a43a21f7465114a2f53578acc3d64736f6c63430008000033\n}\n",
				"bytecode": {
					"linkReferences": {},
					"object": "608060405234801561001057600080fd5b5033600560006101000a81548173ffffffffffffffffffffffffffffffffffffffff021916908373ffffffffffffffffffffffffffffffffffffffff160217905550611082806100616000396000f3fe6080604052600436106100595760003560e01c806305a4050e146100625780632466de241461009f5780633ccfd60b146100a95780634061a5bf146100c0578063c9bf5b15146100eb578063e49024001461012857610060565b3661006057005b005b34801561006e57600080fd5b5061008960048036038101906100849190610d37565b610165565b6040516100969190610ebb565b60405180910390f35b6100a761017d565b005b3480156100b557600080fd5b506100be6102d1565b005b3480156100cc57600080fd5b506100d5610396565b6040516100e29190610e80565b60405180910390f35b3480156100f757600080fd5b50610112600480360381019061010d9190610d60565b610417565b60405161011f9190610e65565b60405180910390f35b34801561013457600080fd5b5061014f600480360381019061014a9190610d60565b61044d565b60405161015c9190610e65565b60405180910390f35b60006020528060005260406000206000915090505481565b600034116101c0576040517f08c379a00000000000000000000000000000000000000000000000000000000081526004016101b790610e9b565b60405180910390fd5b600033905060008060008373ffffffffffffffffffffffffffffffffffffffff1673ffffffffffffffffffffffffffffffffffffffff168152602001908152602001600020541415610270576001819080600181540180825580915050600190039060005260206000200160009091909190916101000a81548173ffffffffffffffffffffffffffffffffffffffff021916908373ffffffffffffffffffffffffffffffffffffffff1602179055505b346000808373ffffffffffffffffffffffffffffffffffffffff1673ffffffffffffffffffffffffffffffffffffffff16815260200190815260200160002060008282546102be9190610f14565b925050819055506102ce8161048c565b50565b600560009054906101000a900473ffffffffffffffffffffffffffffffffffffffff1673ffffffffffffffffffffffffffffffffffffffff163373ffffffffffffffffffffffffffffffffffffffff161461032b57600080fd5b600560009054906101000a900473ffffffffffffffffffffffffffffffffffffffff1673ffffffffffffffffffffffffffffffffffffffff166108fc479081150290604051600060405180830381858888f19350505050158015610393573d6000803e3d6000fd5b50565b61039e610ceb565b600260038060200260405190810160405280929190826003801561040d576020028201915b8160009054906101000a900473ffffffffffffffffffffffffffffffffffffffff1673ffffffffffffffffffffffffffffffffffffffff16815260200190600101908083116103c3575b5050505050905090565b6002816003811061042757600080fd5b016000915054906101000a900473ffffffffffffffffffffffffffffffffffffffff1681565b6001818154811061045d57600080fd5b906000526020600020016000915054906101000a900473ffffffffffffffffffffffffffffffffffffffff1681565b60008060008373ffffffffffffffffffffffffffffffffffffffff1673ffffffffffffffffffffffffffffffffffffffff16815260200190815260200160002054905060005b6003811015610701578273ffffffffffffffffffffffffffffffffffffffff166002826003811061052c577f4e487b7100000000000000000000000000000000000000000000000000000000600052603260045260246000fd5b0160009054906101000a900473ffffffffffffffffffffffffffffffffffffffff1673ffffffffffffffffffffffffffffffffffffffff1614156106ee5760008190505b600281101561066d5760026001826105889190610f14565b600381106105bf577f4e487b7100000000000000000000000000000000000000000000000000000000600052603260045260246000fd5b0160009054906101000a900473ffffffffffffffffffffffffffffffffffffffff166002826003811061061b577f4e487b7100000000000000000000000000000000000000000000000000000000600052603260045260246000fd5b0160006101000a81548173ffffffffffffffffffffffffffffffffffffffff021916908373ffffffffffffffffffffffffffffffffffffffff160217905550808061066590610fa6565b915050610570565b506000600280600381106106aa577f4e487b7100000000000000000000000000000000000000000000000000000000600052603260045260246000fd5b0160006101000a81548173ffffffffffffffffffffffffffffffffffffffff021916908373ffffffffffffffffffffffffffffffffffffffff160217905550610701565b80806106f990610fa6565b9150506104d2565b506000806002600060038110610740577f4e487b7100000000000000000000000000000000000000000000000000000000600052603260045260246000fd5b0160009054906101000a900473ffffffffffffffffffffffffffffffffffffffff1673ffffffffffffffffffffffffffffffffffffffff1673ffffffffffffffffffffffffffffffffffffffff168152602001908152602001600020548111156109d15760026001600381106107df577f4e487b7100000000000000000000000000000000000000000000000000000000600052603260045260246000fd5b0160009054906101000a900473ffffffffffffffffffffffffffffffffffffffff166002806003811061083b577f4e487b7100000000000000000000000000000000000000000000000000000000600052603260045260246000fd5b0160006101000a81548173ffffffffffffffffffffffffffffffffffffffff021916908373ffffffffffffffffffffffffffffffffffffffff16021790555060026000600381106108b5577f4e487b7100000000000000000000000000000000000000000000000000000000600052603260045260246000fd5b0160009054906101000a900473ffffffffffffffffffffffffffffffffffffffff166002600160038110610912577f4e487b7100000000000000000000000000000000000000000000000000000000600052603260045260246000fd5b0160006101000a81548173ffffffffffffffffffffffffffffffffffffffff021916908373ffffffffffffffffffffffffffffffffffffffff16021790555081600260006003811061098d577f4e487b7100000000000000000000000000000000000000000000000000000000600052603260045260246000fd5b0160006101000a81548173ffffffffffffffffffffffffffffffffffffffff021916908373ffffffffffffffffffffffffffffffffffffffff160217905550610ce7565b6000806002600160038110610a0f577f4e487b7100000000000000000000000000000000000000000000000000000000600052603260045260246000fd5b0160009054906101000a900473ffffffffffffffffffffffffffffffffffffffff1673ffffffffffffffffffffffffffffffffffffffff1673ffffffffffffffffffffffffffffffffffffffff16815260200190815260200160002054811115610bc9576002600160038110610aae577f4e487b7100000000000000000000000000000000000000000000000000000000600052603260045260246000fd5b0160009054906101000a900473ffffffffffffffffffffffffffffffffffffffff1660028060038110610b0a577f4e487b7100000000000000000000000000000000000000000000000000000000600052603260045260246000fd5b0160006101000a81548173ffffffffffffffffffffffffffffffffffffffff021916908373ffffffffffffffffffffffffffffffffffffffff160217905550816002600160038110610b85577f4e487b7100000000000000000000000000000000000000000000000000000000600052603260045260246000fd5b0160006101000a81548173ffffffffffffffffffffffffffffffffffffffff021916908373ffffffffffffffffffffffffffffffffffffffff160217905550610ce6565b60008060028060038110610c06577f4e487b7100000000000000000000000000000000000000000000000000000000600052603260045260246000fd5b0160009054906101000a900473ffffffffffffffffffffffffffffffffffffffff1673ffffffffffffffffffffffffffffffffffffffff1673ffffffffffffffffffffffffffffffffffffffff16815260200190815260200160002054811115610ce5578160028060038110610ca5577f4e487b7100000000000000000000000000000000000000000000000000000000600052603260045260246000fd5b0160006101000a81548173ffffffffffffffffffffffffffffffffffffffff021916908373ffffffffffffffffffffffffffffffffffffffff1602179055505b5b5b5050565b6040518060600160405280600390602082028036833780820191505090505090565b600081359050610d1c8161101e565b92915050565b600081359050610d3181611035565b92915050565b600060208284031215610d4957600080fd5b6000610d5784828501610d0d565b91505092915050565b600060208284031215610d7257600080fd5b6000610d8084828501610d22565b91505092915050565b6000610d958383610da1565b60208301905092915050565b610daa81610f6a565b82525050565b610db981610f6a565b82525050565b610dc881610ee0565b610dd28184610ef8565b9250610ddd82610ed6565b8060005b83811015610e0e578151610df58782610d89565b9650610e0083610eeb565b925050600181019050610de1565b505050505050565b6000610e23601983610f03565b91507f76616c7565206d757374206265206d6f7265207468616e2030000000000000006000830152602082019050919050565b610e5f81610f9c565b82525050565b6000602082019050610e7a6000830184610db0565b92915050565b6000606082019050610e956000830184610dbf565b92915050565b60006020820190508181036000830152610eb481610e16565b9050919050565b6000602082019050610ed06000830184610e56565b92915050565b6000819050919050565b600060039050919050565b6000602082019050919050565b600081905092915050565b600082825260208201905092915050565b6000610f1f82610f9c565b9150610f2a83610f9c565b9250827fffffffffffffffffffffffffffffffffffffffffffffffffffffffffffffffff03821115610f5f57610f5e610fef565b5b828201905092915050565b6000610f7582610f7c565b9050919050565b600073ffffffffffffffffffffffffffffffffffffffff82169050919050565b6000819050919050565b6000610fb182610f9c565b91507fffffffffffffffffffffffffffffffffffffffffffffffffffffffffffffffff821415610fe457610fe3610fef565b5b600182019050919050565b7f4e487b7100000000000000000000000000000000000000000000000000000000600052601160045260246000fd5b61102781610f6a565b811461103257600080fd5b50565b61103e81610f9c565b811461104957600080fd5b5056fea2646970667358221220d7a5e3d4fe744316b7a7943b11062f10d3f33a43a21f7465114a2f53578acc3d64736f6c63430008000033",
					"opcodes": "PUSH1 0x80 PUSH1 0x40 MSTORE CALLVALUE DUP1 ISZERO PUSH2 0x10 JUMPI PUSH1 0x0 DUP1 REVERT JUMPDEST POP CALLER PUSH1 0x5 PUSH1 0x0 PUSH2 0x100 EXP DUP2 SLOAD DUP2 PUSH20 0xFFFFFFFFFFFFFFFFFFFFFFFFFFFFFFFFFFFFFFFF MUL NOT AND SWAP1 DUP4 PUSH20 0xFFFFFFFFFFFFFFFFFFFFFFFFFFFFFFFFFFFFFFFF AND MUL OR SWAP1 SSTORE POP PUSH2 0x1082 DUP1 PUSH2 0x61 PUSH1 0x0 CODECOPY PUSH1 0x0 RETURN INVALID PUSH1 0x80 PUSH1 0x40 MSTORE PUSH1 0x4 CALLDATASIZE LT PUSH2 0x59 JUMPI PUSH1 0x0 CALLDATALOAD PUSH1 0xE0 SHR DUP1 PUSH4 0x5A4050E EQ PUSH2 0x62 JUMPI DUP1 PUSH4 0x2466DE24 EQ PUSH2 0x9F JUMPI DUP1 PUSH4 0x3CCFD60B EQ PUSH2 0xA9 JUMPI DUP1 PUSH4 0x4061A5BF EQ PUSH2 0xC0 JUMPI DUP1 PUSH4 0xC9BF5B15 EQ PUSH2 0xEB JUMPI DUP1 PUSH4 0xE4902400 EQ PUSH2 0x128 JUMPI PUSH2 0x60 JUMP JUMPDEST CALLDATASIZE PUSH2 0x60 JUMPI STOP JUMPDEST STOP JUMPDEST CALLVALUE DUP1 ISZERO PUSH2 0x6E JUMPI PUSH1 0x0 DUP1 REVERT JUMPDEST POP PUSH2 0x89 PUSH1 0x4 DUP1 CALLDATASIZE SUB DUP2 ADD SWAP1 PUSH2 0x84 SWAP2 SWAP1 PUSH2 0xD37 JUMP JUMPDEST PUSH2 0x165 JUMP JUMPDEST PUSH1 0x40 MLOAD PUSH2 0x96 SWAP2 SWAP1 PUSH2 0xEBB JUMP JUMPDEST PUSH1 0x40 MLOAD DUP1 SWAP2 SUB SWAP1 RETURN JUMPDEST PUSH2 0xA7 PUSH2 0x17D JUMP JUMPDEST STOP JUMPDEST CALLVALUE DUP1 ISZERO PUSH2 0xB5 JUMPI PUSH1 0x0 DUP1 REVERT JUMPDEST POP PUSH2 0xBE PUSH2 0x2D1 JUMP JUMPDEST STOP JUMPDEST CALLVALUE DUP1 ISZERO PUSH2 0xCC JUMPI PUSH1 0x0 DUP1 REVERT JUMPDEST POP PUSH2 0xD5 PUSH2 0x396 JUMP JUMPDEST PUSH1 0x40 MLOAD PUSH2 0xE2 SWAP2 SWAP1 PUSH2 0xE80 JUMP JUMPDEST PUSH1 0x40 MLOAD DUP1 SWAP2 SUB SWAP1 RETURN JUMPDEST CALLVALUE DUP1 ISZERO PUSH2 0xF7 JUMPI PUSH1 0x0 DUP1 REVERT JUMPDEST POP PUSH2 0x112 PUSH1 0x4 DUP1 CALLDATASIZE SUB DUP2 ADD SWAP1 PUSH2 0x10D SWAP2 SWAP1 PUSH2 0xD60 JUMP JUMPDEST PUSH2 0x417 JUMP JUMPDEST PUSH1 0x40 MLOAD PUSH2 0x11F SWAP2 SWAP1 PUSH2 0xE65 JUMP JUMPDEST PUSH1 0x40 MLOAD DUP1 SWAP2 SUB SWAP1 RETURN JUMPDEST CALLVALUE DUP1 ISZERO PUSH2 0x134 JUMPI PUSH1 0x0 DUP1 REVERT JUMPDEST POP PUSH2 0x14F PUSH1 0x4 DUP1 CALLDATASIZE SUB DUP2 ADD SWAP1 PUSH2 0x14A SWAP2 SWAP1 PUSH2 0xD60 JUMP JUMPDEST PUSH2 0x44D JUMP JUMPDEST PUSH1 0x40 MLOAD PUSH2 0x15C SWAP2 SWAP1 PUSH2 0xE65 JUMP JUMPDEST PUSH1 0x40 MLOAD DUP1 SWAP2 SUB SWAP1 RETURN JUMPDEST PUSH1 0x0 PUSH1 0x20 MSTORE DUP1 PUSH1 0x0 MSTORE PUSH1 0x40 PUSH1 0x0 KECCAK256 PUSH1 0x0 SWAP2 POP SWAP1 POP SLOAD DUP2 JUMP JUMPDEST PUSH1 0x0 CALLVALUE GT PUSH2 0x1C0 JUMPI PUSH1 0x40 MLOAD PUSH32 0x8C379A000000000000000000000000000000000000000000000000000000000 DUP2 MSTORE PUSH1 0x4 ADD PUSH2 0x1B7 SWAP1 PUSH2 0xE9B JUMP JUMPDEST PUSH1 0x40 MLOAD DUP1 SWAP2 SUB SWAP1 REVERT JUMPDEST PUSH1 0x0 CALLER SWAP1 POP PUSH1 0x0 DUP1 PUSH1 0x0 DUP4 PUSH20 0xFFFFFFFFFFFFFFFFFFFFFFFFFFFFFFFFFFFFFFFF AND PUSH20 0xFFFFFFFFFFFFFFFFFFFFFFFFFFFFFFFFFFFFFFFF AND DUP2 MSTORE PUSH1 0x20 ADD SWAP1 DUP2 MSTORE PUSH1 0x20 ADD PUSH1 0x0 KECCAK256 SLOAD EQ ISZERO PUSH2 0x270 JUMPI PUSH1 0x1 DUP2 SWAP1 DUP1 PUSH1 0x1 DUP2 SLOAD ADD DUP1 DUP3 SSTORE DUP1 SWAP2 POP POP PUSH1 0x1 SWAP1 SUB SWAP1 PUSH1 0x0 MSTORE PUSH1 0x20 PUSH1 0x0 KECCAK256 ADD PUSH1 0x0 SWAP1 SWAP2 SWAP1 SWAP2 SWAP1 SWAP2 PUSH2 0x100 EXP DUP2 SLOAD DUP2 PUSH20 0xFFFFFFFFFFFFFFFFFFFFFFFFFFFFFFFFFFFFFFFF MUL NOT AND SWAP1 DUP4 PUSH20 0xFFFFFFFFFFFFFFFFFFFFFFFFFFFFFFFFFFFFFFFF AND MUL OR SWAP1 SSTORE POP JUMPDEST CALLVALUE PUSH1 0x0 DUP1 DUP4 PUSH20 0xFFFFFFFFFFFFFFFFFFFFFFFFFFFFFFFFFFFFFFFF AND PUSH20 0xFFFFFFFFFFFFFFFFFFFFFFFFFFFFFFFFFFFFFFFF AND DUP2 MSTORE PUSH1 0x20 ADD SWAP1 DUP2 MSTORE PUSH1 0x20 ADD PUSH1 0x0 KECCAK256 PUSH1 0x0 DUP3 DUP3 SLOAD PUSH2 0x2BE SWAP2 SWAP1 PUSH2 0xF14 JUMP JUMPDEST SWAP3 POP POP DUP2 SWAP1 SSTORE POP PUSH2 0x2CE DUP2 PUSH2 0x48C JUMP JUMPDEST POP JUMP JUMPDEST PUSH1 0x5 PUSH1 0x0 SWAP1 SLOAD SWAP1 PUSH2 0x100 EXP SWAP1 DIV PUSH20 0xFFFFFFFFFFFFFFFFFFFFFFFFFFFFFFFFFFFFFFFF AND PUSH20 0xFFFFFFFFFFFFFFFFFFFFFFFFFFFFFFFFFFFFFFFF AND CALLER PUSH20 0xFFFFFFFFFFFFFFFFFFFFFFFFFFFFFFFFFFFFFFFF AND EQ PUSH2 0x32B JUMPI PUSH1 0x0 DUP1 REVERT JUMPDEST PUSH1 0x5 PUSH1 0x0 SWAP1 SLOAD SWAP1 PUSH2 0x100 EXP SWAP1 DIV PUSH20 0xFFFFFFFFFFFFFFFFFFFFFFFFFFFFFFFFFFFFFFFF AND PUSH20 0xFFFFFFFFFFFFFFFFFFFFFFFFFFFFFFFFFFFFFFFF AND PUSH2 0x8FC SELFBALANCE SWAP1 DUP2 ISZERO MUL SWAP1 PUSH1 0x40 MLOAD PUSH1 0x0 PUSH1 0x40 MLOAD DUP1 DUP4 SUB DUP2 DUP6 DUP9 DUP9 CALL SWAP4 POP POP POP POP ISZERO DUP1 ISZERO PUSH2 0x393 JUMPI RETURNDATASIZE PUSH1 0x0 DUP1 RETURNDATACOPY RETURNDATASIZE PUSH1 0x0 REVERT JUMPDEST POP JUMP JUMPDEST PUSH2 0x39E PUSH2 0xCEB JUMP JUMPDEST PUSH1 0x2 PUSH1 0x3 DUP1 PUSH1 0x20 MUL PUSH1 0x40 MLOAD SWAP1 DUP2 ADD PUSH1 0x40 MSTORE DUP1 SWAP3 SWAP2 SWAP1 DUP3 PUSH1 0x3 DUP1 ISZERO PUSH2 0x40D JUMPI PUSH1 0x20 MUL DUP3 ADD SWAP2 JUMPDEST DUP2 PUSH1 0x0 SWAP1 SLOAD SWAP1 PUSH2 0x100 EXP SWAP1 DIV PUSH20 0xFFFFFFFFFFFFFFFFFFFFFFFFFFFFFFFFFFFFFFFF AND PUSH20 0xFFFFFFFFFFFFFFFFFFFFFFFFFFFFFFFFFFFFFFFF AND DUP2 MSTORE PUSH1 0x20 ADD SWAP1 PUSH1 0x1 ADD SWAP1 DUP1 DUP4 GT PUSH2 0x3C3 JUMPI JUMPDEST POP POP POP POP POP SWAP1 POP SWAP1 JUMP JUMPDEST PUSH1 0x2 DUP2 PUSH1 0x3 DUP2 LT PUSH2 0x427 JUMPI PUSH1 0x0 DUP1 REVERT JUMPDEST ADD PUSH1 0x0 SWAP2 POP SLOAD SWAP1 PUSH2 0x100 EXP SWAP1 DIV PUSH20 0xFFFFFFFFFFFFFFFFFFFFFFFFFFFFFFFFFFFFFFFF AND DUP2 JUMP JUMPDEST PUSH1 0x1 DUP2 DUP2 SLOAD DUP2 LT PUSH2 0x45D JUMPI PUSH1 0x0 DUP1 REVERT JUMPDEST SWAP1 PUSH1 0x0 MSTORE PUSH1 0x20 PUSH1 0x0 KECCAK256 ADD PUSH1 0x0 SWAP2 POP SLOAD SWAP1 PUSH2 0x100 EXP SWAP1 DIV PUSH20 0xFFFFFFFFFFFFFFFFFFFFFFFFFFFFFFFFFFFFFFFF AND DUP2 JUMP JUMPDEST PUSH1 0x0 DUP1 PUSH1 0x0 DUP4 PUSH20 0xFFFFFFFFFFFFFFFFFFFFFFFFFFFFFFFFFFFFFFFF AND PUSH20 0xFFFFFFFFFFFFFFFFFFFFFFFFFFFFFFFFFFFFFFFF AND DUP2 MSTORE PUSH1 0x20 ADD SWAP1 DUP2 MSTORE PUSH1 0x20 ADD PUSH1 0x0 KECCAK256 SLOAD SWAP1 POP PUSH1 0x0 JUMPDEST PUSH1 0x3 DUP2 LT ISZERO PUSH2 0x701 JUMPI DUP3 PUSH20 0xFFFFFFFFFFFFFFFFFFFFFFFFFFFFFFFFFFFFFFFF AND PUSH1 0x2 DUP3 PUSH1 0x3 DUP2 LT PUSH2 0x52C JUMPI PUSH32 0x4E487B7100000000000000000000000000000000000000000000000000000000 PUSH1 0x0 MSTORE PUSH1 0x32 PUSH1 0x4 MSTORE PUSH1 0x24 PUSH1 0x0 REVERT JUMPDEST ADD PUSH1 0x0 SWAP1 SLOAD SWAP1 PUSH2 0x100 EXP SWAP1 DIV PUSH20 0xFFFFFFFFFFFFFFFFFFFFFFFFFFFFFFFFFFFFFFFF AND PUSH20 0xFFFFFFFFFFFFFFFFFFFFFFFFFFFFFFFFFFFFFFFF AND EQ ISZERO PUSH2 0x6EE JUMPI PUSH1 0x0 DUP2 SWAP1 POP JUMPDEST PUSH1 0x2 DUP2 LT ISZERO PUSH2 0x66D JUMPI PUSH1 0x2 PUSH1 0x1 DUP3 PUSH2 0x588 SWAP2 SWAP1 PUSH2 0xF14 JUMP JUMPDEST PUSH1 0x3 DUP2 LT PUSH2 0x5BF JUMPI PUSH32 0x4E487B7100000000000000000000000000000000000000000000000000000000 PUSH1 0x0 MSTORE PUSH1 0x32 PUSH1 0x4 MSTORE PUSH1 0x24 PUSH1 0x0 REVERT JUMPDEST ADD PUSH1 0x0 SWAP1 SLOAD SWAP1 PUSH2 0x100 EXP SWAP1 DIV PUSH20 0xFFFFFFFFFFFFFFFFFFFFFFFFFFFFFFFFFFFFFFFF AND PUSH1 0x2 DUP3 PUSH1 0x3 DUP2 LT PUSH2 0x61B JUMPI PUSH32 0x4E487B7100000000000000000000000000000000000000000000000000000000 PUSH1 0x0 MSTORE PUSH1 0x32 PUSH1 0x4 MSTORE PUSH1 0x24 PUSH1 0x0 REVERT JUMPDEST ADD PUSH1 0x0 PUSH2 0x100 EXP DUP2 SLOAD DUP2 PUSH20 0xFFFFFFFFFFFFFFFFFFFFFFFFFFFFFFFFFFFFFFFF MUL NOT AND SWAP1 DUP4 PUSH20 0xFFFFFFFFFFFFFFFFFFFFFFFFFFFFFFFFFFFFFFFF AND MUL OR SWAP1 SSTORE POP DUP1 DUP1 PUSH2 0x665 SWAP1 PUSH2 0xFA6 JUMP JUMPDEST SWAP2 POP POP PUSH2 0x570 JUMP JUMPDEST POP PUSH1 0x0 PUSH1 0x2 DUP1 PUSH1 0x3 DUP2 LT PUSH2 0x6AA JUMPI PUSH32 0x4E487B7100000000000000000000000000000000000000000000000000000000 PUSH1 0x0 MSTORE PUSH1 0x32 PUSH1 0x4 MSTORE PUSH1 0x24 PUSH1 0x0 REVERT JUMPDEST ADD PUSH1 0x0 PUSH2 0x100 EXP DUP2 SLOAD DUP2 PUSH20 0xFFFFFFFFFFFFFFFFFFFFFFFFFFFFFFFFFFFFFFFF MUL NOT AND SWAP1 DUP4 PUSH20 0xFFFFFFFFFFFFFFFFFFFFFFFFFFFFFFFFFFFFFFFF AND MUL OR SWAP1 SSTORE POP PUSH2 0x701 JUMP JUMPDEST DUP1 DUP1 PUSH2 0x6F9 SWAP1 PUSH2 0xFA6 JUMP JUMPDEST SWAP2 POP POP PUSH2 0x4D2 JUMP JUMPDEST POP PUSH1 0x0 DUP1 PUSH1 0x2 PUSH1 0x0 PUSH1 0x3 DUP2 LT PUSH2 0x740 JUMPI PUSH32 0x4E487B7100000000000000000000000000000000000000000000000000000000 PUSH1 0x0 MSTORE PUSH1 0x32 PUSH1 0x4 MSTORE PUSH1 0x24 PUSH1 0x0 REVERT JUMPDEST ADD PUSH1 0x0 SWAP1 SLOAD SWAP1 PUSH2 0x100 EXP SWAP1 DIV PUSH20 0xFFFFFFFFFFFFFFFFFFFFFFFFFFFFFFFFFFFFFFFF AND PUSH20 0xFFFFFFFFFFFFFFFFFFFFFFFFFFFFFFFFFFFFFFFF AND PUSH20 0xFFFFFFFFFFFFFFFFFFFFFFFFFFFFFFFFFFFFFFFF AND DUP2 MSTORE PUSH1 0x20 ADD SWAP1 DUP2 MSTORE PUSH1 0x20 ADD PUSH1 0x0 KECCAK256 SLOAD DUP2 GT ISZERO PUSH2 0x9D1 JUMPI PUSH1 0x2 PUSH1 0x1 PUSH1 0x3 DUP2 LT PUSH2 0x7DF JUMPI PUSH32 0x4E487B7100000000000000000000000000000000000000000000000000000000 PUSH1 0x0 MSTORE PUSH1 0x32 PUSH1 0x4 MSTORE PUSH1 0x24 PUSH1 0x0 REVERT JUMPDEST ADD PUSH1 0x0 SWAP1 SLOAD SWAP1 PUSH2 0x100 EXP SWAP1 DIV PUSH20 0xFFFFFFFFFFFFFFFFFFFFFFFFFFFFFFFFFFFFFFFF AND PUSH1 0x2 DUP1 PUSH1 0x3 DUP2 LT PUSH2 0x83B JUMPI PUSH32 0x4E487B7100000000000000000000000000000000000000000000000000000000 PUSH1 0x0 MSTORE PUSH1 0x32 PUSH1 0x4 MSTORE PUSH1 0x24 PUSH1 0x0 REVERT JUMPDEST ADD PUSH1 0x0 PUSH2 0x100 EXP DUP2 SLOAD DUP2 PUSH20 0xFFFFFFFFFFFFFFFFFFFFFFFFFFFFFFFFFFFFFFFF MUL NOT AND SWAP1 DUP4 PUSH20 0xFFFFFFFFFFFFFFFFFFFFFFFFFFFFFFFFFFFFFFFF AND MUL OR SWAP1 SSTORE POP PUSH1 0x2 PUSH1 0x0 PUSH1 0x3 DUP2 LT PUSH2 0x8B5 JUMPI PUSH32 0x4E487B7100000000000000000000000000000000000000000000000000000000 PUSH1 0x0 MSTORE PUSH1 0x32 PUSH1 0x4 MSTORE PUSH1 0x24 PUSH1 0x0 REVERT JUMPDEST ADD PUSH1 0x0 SWAP1 SLOAD SWAP1 PUSH2 0x100 EXP SWAP1 DIV PUSH20 0xFFFFFFFFFFFFFFFFFFFFFFFFFFFFFFFFFFFFFFFF AND PUSH1 0x2 PUSH1 0x1 PUSH1 0x3 DUP2 LT PUSH2 0x912 JUMPI PUSH32 0x4E487B7100000000000000000000000000000000000000000000000000000000 PUSH1 0x0 MSTORE PUSH1 0x32 PUSH1 0x4 MSTORE PUSH1 0x24 PUSH1 0x0 REVERT JUMPDEST ADD PUSH1 0x0 PUSH2 0x100 EXP DUP2 SLOAD DUP2 PUSH20 0xFFFFFFFFFFFFFFFFFFFFFFFFFFFFFFFFFFFFFFFF MUL NOT AND SWAP1 DUP4 PUSH20 0xFFFFFFFFFFFFFFFFFFFFFFFFFFFFFFFFFFFFFFFF AND MUL OR SWAP1 SSTORE POP DUP2 PUSH1 0x2 PUSH1 0x0 PUSH1 0x3 DUP2 LT PUSH2 0x98D JUMPI PUSH32 0x4E487B7100000000000000000000000000000000000000000000000000000000 PUSH1 0x0 MSTORE PUSH1 0x32 PUSH1 0x4 MSTORE PUSH1 0x24 PUSH1 0x0 REVERT JUMPDEST ADD PUSH1 0x0 PUSH2 0x100 EXP DUP2 SLOAD DUP2 PUSH20 0xFFFFFFFFFFFFFFFFFFFFFFFFFFFFFFFFFFFFFFFF MUL NOT AND SWAP1 DUP4 PUSH20 0xFFFFFFFFFFFFFFFFFFFFFFFFFFFFFFFFFFFFFFFF AND MUL OR SWAP1 SSTORE POP PUSH2 0xCE7 JUMP JUMPDEST PUSH1 0x0 DUP1 PUSH1 0x2 PUSH1 0x1 PUSH1 0x3 DUP2 LT PUSH2 0xA0F JUMPI PUSH32 0x4E487B7100000000000000000000000000000000000000000000000000000000 PUSH1 0x0 MSTORE PUSH1 0x32 PUSH1 0x4 MSTORE PUSH1 0x24 PUSH1 0x0 REVERT JUMPDEST ADD PUSH1 0x0 SWAP1 SLOAD SWAP1 PUSH2 0x100 EXP SWAP1 DIV PUSH20 0xFFFFFFFFFFFFFFFFFFFFFFFFFFFFFFFFFFFFFFFF AND PUSH20 0xFFFFFFFFFFFFFFFFFFFFFFFFFFFFFFFFFFFFFFFF AND PUSH20 0xFFFFFFFFFFFFFFFFFFFFFFFFFFFFFFFFFFFFFFFF AND DUP2 MSTORE PUSH1 0x20 ADD SWAP1 DUP2 MSTORE PUSH1 0x20 ADD PUSH1 0x0 KECCAK256 SLOAD DUP2 GT ISZERO PUSH2 0xBC9 JUMPI PUSH1 0x2 PUSH1 0x1 PUSH1 0x3 DUP2 LT PUSH2 0xAAE JUMPI PUSH32 0x4E487B7100000000000000000000000000000000000000000000000000000000 PUSH1 0x0 MSTORE PUSH1 0x32 PUSH1 0x4 MSTORE PUSH1 0x24 PUSH1 0x0 REVERT JUMPDEST ADD PUSH1 0x0 SWAP1 SLOAD SWAP1 PUSH2 0x100 EXP SWAP1 DIV PUSH20 0xFFFFFFFFFFFFFFFFFFFFFFFFFFFFFFFFFFFFFFFF AND PUSH1 0x2 DUP1 PUSH1 0x3 DUP2 LT PUSH2 0xB0A JUMPI PUSH32 0x4E487B7100000000000000000000000000000000000000000000000000000000 PUSH1 0x0 MSTORE PUSH1 0x32 PUSH1 0x4 MSTORE PUSH1 0x24 PUSH1 0x0 REVERT JUMPDEST ADD PUSH1 0x0 PUSH2 0x100 EXP DUP2 SLOAD DUP2 PUSH20 0xFFFFFFFFFFFFFFFFFFFFFFFFFFFFFFFFFFFFFFFF MUL NOT AND SWAP1 DUP4 PUSH20 0xFFFFFFFFFFFFFFFFFFFFFFFFFFFFFFFFFFFFFFFF AND MUL OR SWAP1 SSTORE POP DUP2 PUSH1 0x2 PUSH1 0x1 PUSH1 0x3 DUP2 LT PUSH2 0xB85 JUMPI PUSH32 0x4E487B7100000000000000000000000000000000000000000000000000000000 PUSH1 0x0 MSTORE PUSH1 0x32 PUSH1 0x4 MSTORE PUSH1 0x24 PUSH1 0x0 REVERT JUMPDEST ADD PUSH1 0x0 PUSH2 0x100 EXP DUP2 SLOAD DUP2 PUSH20 0xFFFFFFFFFFFFFFFFFFFFFFFFFFFFFFFFFFFFFFFF MUL NOT AND SWAP1 DUP4 PUSH20 0xFFFFFFFFFFFFFFFFFFFFFFFFFFFFFFFFFFFFFFFF AND MUL OR SWAP1 SSTORE POP PUSH2 0xCE6 JUMP JUMPDEST PUSH1 0x0 DUP1 PUSH1 0x2 DUP1 PUSH1 0x3 DUP2 LT PUSH2 0xC06 JUMPI PUSH32 0x4E487B7100000000000000000000000000000000000000000000000000000000 PUSH1 0x0 MSTORE PUSH1 0x32 PUSH1 0x4 MSTORE PUSH1 0x24 PUSH1 0x0 REVERT JUMPDEST ADD PUSH1 0x0 SWAP1 SLOAD SWAP1 PUSH2 0x100 EXP SWAP1 DIV PUSH20 0xFFFFFFFFFFFFFFFFFFFFFFFFFFFFFFFFFFFFFFFF AND PUSH20 0xFFFFFFFFFFFFFFFFFFFFFFFFFFFFFFFFFFFFFFFF AND PUSH20 0xFFFFFFFFFFFFFFFFFFFFFFFFFFFFFFFFFFFFFFFF AND DUP2 MSTORE PUSH1 0x20 ADD SWAP1 DUP2 MSTORE PUSH1 0x20 ADD PUSH1 0x0 KECCAK256 SLOAD DUP2 GT ISZERO PUSH2 0xCE5 JUMPI DUP2 PUSH1 0x2 DUP1 PUSH1 0x3 DUP2 LT PUSH2 0xCA5 JUMPI PUSH32 0x4E487B7100000000000000000000000000000000000000000000000000000000 PUSH1 0x0 MSTORE PUSH1 0x32 PUSH1 0x4 MSTORE PUSH1 0x24 PUSH1 0x0 REVERT JUMPDEST ADD PUSH1 0x0 PUSH2 0x100 EXP DUP2 SLOAD DUP2 PUSH20 0xFFFFFFFFFFFFFFFFFFFFFFFFFFFFFFFFFFFFFFFF MUL NOT AND SWAP1 DUP4 PUSH20 0xFFFFFFFFFFFFFFFFFFFFFFFFFFFFFFFFFFFFFFFF AND MUL OR SWAP1 SSTORE POP JUMPDEST JUMPDEST JUMPDEST POP POP JUMP JUMPDEST PUSH1 0x40 MLOAD DUP1 PUSH1 0x60 ADD PUSH1 0x40 MSTORE DUP1 PUSH1 0x3 SWAP1 PUSH1 0x20 DUP3 MUL DUP1 CALLDATASIZE DUP4 CALLDATACOPY DUP1 DUP3 ADD SWAP2 POP POP SWAP1 POP POP SWAP1 JUMP JUMPDEST PUSH1 0x0 DUP2 CALLDATALOAD SWAP1 POP PUSH2 0xD1C DUP2 PUSH2 0x101E JUMP JUMPDEST SWAP3 SWAP2 POP POP JUMP JUMPDEST PUSH1 0x0 DUP2 CALLDATALOAD SWAP1 POP PUSH2 0xD31 DUP2 PUSH2 0x1035 JUMP JUMPDEST SWAP3 SWAP2 POP POP JUMP JUMPDEST PUSH1 0x0 PUSH1 0x20 DUP3 DUP5 SUB SLT ISZERO PUSH2 0xD49 JUMPI PUSH1 0x0 DUP1 REVERT JUMPDEST PUSH1 0x0 PUSH2 0xD57 DUP5 DUP3 DUP6 ADD PUSH2 0xD0D JUMP JUMPDEST SWAP2 POP POP SWAP3 SWAP2 POP POP JUMP JUMPDEST PUSH1 0x0 PUSH1 0x20 DUP3 DUP5 SUB SLT ISZERO PUSH2 0xD72 JUMPI PUSH1 0x0 DUP1 REVERT JUMPDEST PUSH1 0x0 PUSH2 0xD80 DUP5 DUP3 DUP6 ADD PUSH2 0xD22 JUMP JUMPDEST SWAP2 POP POP SWAP3 SWAP2 POP POP JUMP JUMPDEST PUSH1 0x0 PUSH2 0xD95 DUP4 DUP4 PUSH2 0xDA1 JUMP JUMPDEST PUSH1 0x20 DUP4 ADD SWAP1 POP SWAP3 SWAP2 POP POP JUMP JUMPDEST PUSH2 0xDAA DUP2 PUSH2 0xF6A JUMP JUMPDEST DUP3 MSTORE POP POP JUMP JUMPDEST PUSH2 0xDB9 DUP2 PUSH2 0xF6A JUMP JUMPDEST DUP3 MSTORE POP POP JUMP JUMPDEST PUSH2 0xDC8 DUP2 PUSH2 0xEE0 JUMP JUMPDEST PUSH2 0xDD2 DUP2 DUP5 PUSH2 0xEF8 JUMP JUMPDEST SWAP3 POP PUSH2 0xDDD DUP3 PUSH2 0xED6 JUMP JUMPDEST DUP1 PUSH1 0x0 JUMPDEST DUP4 DUP2 LT ISZERO PUSH2 0xE0E JUMPI DUP2 MLOAD PUSH2 0xDF5 DUP8 DUP3 PUSH2 0xD89 JUMP JUMPDEST SWAP7 POP PUSH2 0xE00 DUP4 PUSH2 0xEEB JUMP JUMPDEST SWAP3 POP POP PUSH1 0x1 DUP2 ADD SWAP1 POP PUSH2 0xDE1 JUMP JUMPDEST POP POP POP POP POP POP JUMP JUMPDEST PUSH1 0x0 PUSH2 0xE23 PUSH1 0x19 DUP4 PUSH2 0xF03 JUMP JUMPDEST SWAP2 POP PUSH32 0x76616C7565206D757374206265206D6F7265207468616E203000000000000000 PUSH1 0x0 DUP4 ADD MSTORE PUSH1 0x20 DUP3 ADD SWAP1 POP SWAP2 SWAP1 POP JUMP JUMPDEST PUSH2 0xE5F DUP2 PUSH2 0xF9C JUMP JUMPDEST DUP3 MSTORE POP POP JUMP JUMPDEST PUSH1 0x0 PUSH1 0x20 DUP3 ADD SWAP1 POP PUSH2 0xE7A PUSH1 0x0 DUP4 ADD DUP5 PUSH2 0xDB0 JUMP JUMPDEST SWAP3 SWAP2 POP POP JUMP JUMPDEST PUSH1 0x0 PUSH1 0x60 DUP3 ADD SWAP1 POP PUSH2 0xE95 PUSH1 0x0 DUP4 ADD DUP5 PUSH2 0xDBF JUMP JUMPDEST SWAP3 SWAP2 POP POP JUMP JUMPDEST PUSH1 0x0 PUSH1 0x20 DUP3 ADD SWAP1 POP DUP2 DUP2 SUB PUSH1 0x0 DUP4 ADD MSTORE PUSH2 0xEB4 DUP2 PUSH2 0xE16 JUMP JUMPDEST SWAP1 POP SWAP2 SWAP1 POP JUMP JUMPDEST PUSH1 0x0 PUSH1 0x20 DUP3 ADD SWAP1 POP PUSH2 0xED0 PUSH1 0x0 DUP4 ADD DUP5 PUSH2 0xE56 JUMP JUMPDEST SWAP3 SWAP2 POP POP JUMP JUMPDEST PUSH1 0x0 DUP2 SWAP1 POP SWAP2 SWAP1 POP JUMP JUMPDEST PUSH1 0x0 PUSH1 0x3 SWAP1 POP SWAP2 SWAP1 POP JUMP JUMPDEST PUSH1 0x0 PUSH1 0x20 DUP3 ADD SWAP1 POP SWAP2 SWAP1 POP JUMP JUMPDEST PUSH1 0x0 DUP2 SWAP1 POP SWAP3 SWAP2 POP POP JUMP JUMPDEST PUSH1 0x0 DUP3 DUP3 MSTORE PUSH1 0x20 DUP3 ADD SWAP1 POP SWAP3 SWAP2 POP POP JUMP JUMPDEST PUSH1 0x0 PUSH2 0xF1F DUP3 PUSH2 0xF9C JUMP JUMPDEST SWAP2 POP PUSH2 0xF2A DUP4 PUSH2 0xF9C JUMP JUMPDEST SWAP3 POP DUP3 PUSH32 0xFFFFFFFFFFFFFFFFFFFFFFFFFFFFFFFFFFFFFFFFFFFFFFFFFFFFFFFFFFFFFFFF SUB DUP3 GT ISZERO PUSH2 0xF5F JUMPI PUSH2 0xF5E PUSH2 0xFEF JUMP JUMPDEST JUMPDEST DUP3 DUP3 ADD SWAP1 POP SWAP3 SWAP2 POP POP JUMP JUMPDEST PUSH1 0x0 PUSH2 0xF75 DUP3 PUSH2 0xF7C JUMP JUMPDEST SWAP1 POP SWAP2 SWAP1 POP JUMP JUMPDEST PUSH1 0x0 PUSH20 0xFFFFFFFFFFFFFFFFFFFFFFFFFFFFFFFFFFFFFFFF DUP3 AND SWAP1 POP SWAP2 SWAP1 POP JUMP JUMPDEST PUSH1 0x0 DUP2 SWAP1 POP SWAP2 SWAP1 POP JUMP JUMPDEST PUSH1 0x0 PUSH2 0xFB1 DUP3 PUSH2 0xF9C JUMP JUMPDEST SWAP2 POP PUSH32 0xFFFFFFFFFFFFFFFFFFFFFFFFFFFFFFFFFFFFFFFFFFFFFFFFFFFFFFFFFFFFFFFF DUP3 EQ ISZERO PUSH2 0xFE4 JUMPI PUSH2 0xFE3 PUSH2 0xFEF JUMP JUMPDEST JUMPDEST PUSH1 0x1 DUP3 ADD SWAP1 POP SWAP2 SWAP1 POP JUMP JUMPDEST PUSH32 0x4E487B7100000000000000000000000000000000000000000000000000000000 PUSH1 0x0 MSTORE PUSH1 0x11 PUSH1 0x4 MSTORE PUSH1 0x24 PUSH1 0x0 REVERT JUMPDEST PUSH2 0x1027 DUP2 PUSH2 0xF6A JUMP JUMPDEST DUP2 EQ PUSH2 0x1032 JUMPI PUSH1 0x0 DUP1 REVERT JUMPDEST POP JUMP JUMPDEST PUSH2 0x103E DUP2 PUSH2 0xF9C JUMP JUMPDEST DUP2 EQ PUSH2 0x1049 JUMPI PUSH1 0x0 DUP1 REVERT JUMPDEST POP JUMP INVALID LOG2 PUSH5 0x6970667358 0x22 SLT KECCAK256 0xD7 0xA5 0xE3 0xD4 INVALID PUSH21 0x4316B7A7943B11062F10D3F33A43A21F7465114A2F MSTORE8 JUMPI DUP11 0xCC RETURNDATASIZE PUSH5 0x736F6C6343 STOP ADDMOD STOP STOP CALLER "
				},
				"gasEstimates": {
					"creation": {
						"codeDepositCost": "845200",
						"executionCost": "21749",
						"totalCost": "866949"
					},
					"external": {
						"": "195",
						"countAndMoney(address)": "1492",
						"getTop3()": "infinite",
						"saveMoney()": "infinite",
						"top3(uint256)": "1571",
						"userAddrs(uint256)": "2444",
						"withdraw()": "infinite"
					},
					"internal": {
						"updateTop3(address)": "infinite"
					}
				},
				"methodIdentifiers": {
					"countAndMoney(address)": "05a4050e",
					"getTop3()": "4061a5bf",
					"saveMoney()": "2466de24",
					"top3(uint256)": "c9bf5b15",
					"userAddrs(uint256)": "e4902400",
					"withdraw()": "3ccfd60b"
				}
			},
			"storageLayout": {
				"storage": [
					{
						"astId": 5,
						"contract": "Bank.sol:Bank",
						"label": "countAndMoney",
						"offset": 0,
						"slot": "0",
						"type": "t_mapping(t_address,t_uint256)"
					},
					{
						"astId": 8,
						"contract": "Bank.sol:Bank",
						"label": "userAddrs",
						"offset": 0,
						"slot": "1",
						"type": "t_array(t_address)dyn_storage"
					},
					{
						"astId": 12,
						"contract": "Bank.sol:Bank",
						"label": "top3",
						"offset": 0,
						"slot": "2",
						"type": "t_array(t_address)3_storage"
					},
					{
						"astId": 14,
						"contract": "Bank.sol:Bank",
						"label": "owner",
						"offset": 0,
						"slot": "5",
						"type": "t_address"
					}
				],
				"types": {
					"t_address": {
						"encoding": "inplace",
						"label": "address",
						"numberOfBytes": "20"
					},
					"t_array(t_address)3_storage": {
						"base": "t_address",
						"encoding": "inplace",
						"label": "address[3]",
						"numberOfBytes": "96"
					},
					"t_array(t_address)dyn_storage": {
						"base": "t_address",
						"encoding": "dynamic_array",
						"label": "address[]",
						"numberOfBytes": "32"
					},
					"t_mapping(t_address,t_uint256)": {
						"encoding": "mapping",
						"key": "t_address",
						"label": "mapping(address => uint256)",
						"numberOfBytes": "32",
						"value": "t_uint256"
					},
					"t_uint256": {
						"encoding": "inplace",
						"label": "uint256",
						"numberOfBytes": "32"
					}
				}
			},
			"userdoc": {
				"kind": "user",
				"methods": {},
				"version": 1
			}
		}
	}
}